:060000000200300200AD19
:03000B000200A34D
:030013000200AD3B
:03001B000200AD33
:030023000200AD2B
:1000300075A800758A0A7588207560007F10758A1A
:100040000A758820DFFEE560B40041D28875A802F9
:100050007560007F10758A0A758820DFFEE560B440
:10006000002AD28875A8827560007F10758A0A758B
:100070008820DFFEE560B401089000D012009701EF
:100080007F9000EF12009775A800018A9000BE12C1
:10009000009775A80001957800E808936004F59929
:1000A00080F722D28805609000AF11973201AD3CF5
:1000B00054696D6572206972713E0D0A0000556EBB
:1000C0006578706563746564204952510D0A0000BB
:1000D00049525120746573742066696E697368654E
:1000E000642C206E6F206572726F72730D0A004D62
:0D00F000697373696E67204952510D0A0053
:00000001FF
