:060000000200300200D4F2
:03000B000200E20E
:030013000200E206
:03001B000200E2FE
:030023000200E2F6
:1000300075A800759001000000E560B4007FD2C093
:1000400075A801759001000000E560B4006FD2C092
:1000500075900075A881756000759001000000E53D
:1000600060B4014ED2C09001081200C875A8007596
:100070008800758D00758C00758FC3758E507588DE
:1000800030785F00D8FDE58DB4001CE58CB4001716
:10009000780A00D8FDE58DB4000DE58CB401089018
:1000A00001431200C801A59001351200C875A800CF
:1000B00001B09001271200C875A80001BB9000F69E
:1000C0001200C875A80001C67800E808936004F51E
:1000D0009980F72275900075C0FF05609000E411CB
:1000E000C83201E23C45787465726E616C206972B9
:1000F000713E0D0A0000556E657870656374656425
:10010000204952510D0A0000495251207465737400
:100110002066696E69736865642C206E6F20657255
:10012000726F72730D0A004D697373696E672049AF
:1001300052510D0A0054696D6572206572726F72BA
:100140000D0A0054696D65722074657374206669C8
:100150006E69736865642C206E6F206572726F72B1
:04016000730D0A0011
:00000001FF
