:0400000002001332B5
:03000B0002154E8D
:03007E0002000E6F
:05000E0012008180FEDC
:200081001214219006207478F0A37422F0A37480F090226F75F0801213E8AD82AE83AFF0C4
:2000A100ED4E701B747BC0E07422C0E07480C0E0121A0B1581158115819000011213E490FD
:2000C1000026121386AD82AE83AFF0900003EDF0A3EEF0A3EFF0900026121386AD82AE831B
:2000E100AFF0900000EDF0A3EEF0A3EFF0900003E0FAA3E0FBA3E0FC8D828E838FF0EA12EB
:20010100177DA3EB12177DA3EC12177D74032DFAE43EFB8F048A828B838CF0E412177D74FF
:20012100042DFAE43EFB8F048A828B838CF0740212177D74052DFAE43EFB8F048A828B83C7
:200141008CF0742812177DA3E412177D74072DFDE43EFE9006317493F0A37422F0A3748070
:20016100F08D828E838FF01215A590063174B2F0A37422F0A37480F090054B75F00012152A
:20018100A59001DC740AF0A3E4F074D1C0E07422C0E07480C0E0121A0B158115811581744B
:2001A100D3C0E07422C0E07480C0E0121A0B15811581158174D1C0E07422C0E07480C0E059
:2001C100121A0B15811581158174A8C0E07461C0E07403C0E07423C0E07480C0E0121A0BDB
:2001E100E58124FBF581121444AC82AD83AEF0FF900520ECF0A3EDF0A3EEF0A3EFF07E010B
:200201007F00C374A89E74E18FF063F08095F05003020481C007C006120F63120F3B9005D9
:20022100447402F0A3E4F09005467403F0A3E4F09006317430F0A37423F0A37480F0900542
:200241006A75F0001215A590054A7401F09005AA746AF0A37405F0A3E4F090054B75F000E9
:2002610012124DAC82AD83D006D007EC4DB40100E433FC900008F0EC3395E0A3F07C027D56
:2002810000C3EC9403ED64809480506790064CECF0A3EDF0900005C007C006C005C0041280
:2002A1001796E5828583F0D004D00524FDFAE5F034FFFB900548EAF0A3EBF0900597740392
:2002C100F0A3E4F09005997448F0A37405F0A3E4F08C828D83C005C004121024D004D005C3
:2002E100D006D0070CBC00010D900544ECF0A3EDF0808E900544ECF0A3EDF0900548E0FA4B
:20030100A3E0FB90059E743EF0A37400F0A3E4F09005A1ECF0A3EDF09005A3EAF0A3EBF0E9
:2003210090000C75F000C007C006121066900000E0FBA3E0FCA3E0FD8B828C838DF0120C85
:200341002BD006D0078E048F057B4190000BE0FAC364808BF063F08095F0407B9005A87487
:2003610043F08B82C007C006C005C004C00312122EAA82D003D004D005D006D00790054ADD
:20038100E0F9B5024E900593744AF0A37405F0A3E4F0758200C007C006C005C004C0031243
:2003A1000F71900631744FF0A37423F0A37480F090056A75F0001215A5D003D004D005D015
:2003C10006D007900546ECF0A3EDF0900006ECF0A3EDF00B02034C900544E0FCA3E0FD90F5
:2003E1000546E0FAA3E0FB90064CECF0A3EDF08A828B83C007C006121796E5828583F090C6
:200401000546F0A3E5F0F0900548E0FCA3E0FD900546E0FAA3E0FB900658ECF0A3EDF08AF8
:20042100828B83C005C004C003C0021218B6A882A983D002D003D004D005900544E8F0A345
:20044100E9F090064CEAC39CF0EB9DA3F0900007C001C000121796E5828583F0D000D001B5
:20046100900546C398F0E5F099A3F090054475F000120E4DD006D0070EBE00010F02020319
:20048100121444AC82AD83AEF0FF900524ECF0A3EDF0A3EEF0A3EFF0746EC0E07423C0E025
:2004A1007480C0E0121A0B15811581158174D1C0E07422C0E07480C0E0121A0B158115819C
:2004C1001581747EC0E07423C0E07480C0E0121A0B15811581158174D1C0E07422C0E074A0
:2004E10080C0E0121A0B158115811581900006E0C0E0A3E0C0E074B4C0E07423C0E07480B6
:20050100C0E0121A0BE58124FBF5817405C0E0E4C0E074CDC0E07423C0E07480C0E0121A93
:200521000BE58124FBF581900008E0C0E0A3E0C0E074E6C0E07423C0E07480C0E0121A0B7D
:20054100E58124FBF5817401C0E0E4C0E074CDC0E07423C0E07480C0E0121A0BE58124FB9E
:20056100F58190000AE0FF3395E0FEC007C00674FFC0E07423C0E07480C0E0121A0BE581DD
:2005810024FBF5817441C0E0E4C0E07418C0E07424C0E07480C0E0121A0BE58124FBF581C2
:2005A10090000BE0FF3395E0FEC007C0067431C0E07424C0E07480C0E0121A0BE58124FBC0
:2005C100F5817442C0E0E4C0E07418C0E07424C0E07480C0E0121A0BE58124FBF581900010
:2005E1001CE0FEA3E0FFC006C007744AC0E07424C0E07480C0E0121A0BE58124FBF5817421
:2006010007C0E0E4C0E074CDC0E07423C0E07480C0E0121A0BE58124FBF5819001DCE0FE85
:20062100A3E0FFC006C0077463C0E07424C0E07480C0E0121A0BE58124FBF581747CC0E0A5
:200641007424C0E07480C0E0121A0B15811581158174A6C0E07424C0E07480C0E0121A0B17
:20066100158115811581900000E0FDA3E0FEA3E0FF8D828E838FF012224FFDA312224FFE04
:20068100A312224FC005C00674B2C0E07424C0E07480C0E0121A0BE58124FBF58174CBC0E5
:2006A100E07424C0E07480C0E0121A0B158115811581900000E0FDA3E0FEA3E0FF74032D80
:2006C100FDE43EFE8D828E838FF012224FFD7F00C005C00774FCC0E07424C0E07480C0E0F6
:2006E100121A0BE58124FBF581E4C0E0C0E074CDC0E07423C0E07480C0E0121A0BE5812436
:20070100FBF581900000E0FDA3E0FEA3E0FF74042DFDE43EFE8D828E838FF012224FFD7F97
:2007210000C005C0077415C0E07425C0E07480C0E0121A0BE58124FBF5817402C0E0E4C04A
:20074100E074CDC0E07423C0E07480C0E0121A0BE58124FBF581900000E0FDA3E0FEA3E069
:20076100FF74052DFDE43EFE8D828E838FF012224FFDA312224FFEC005C006742EC0E07432
:2007810025C0E07480C0E0121A0BE58124FBF5817411C0E0E4C0E074CDC0E07423C0E07498
:2007A10080C0E0121A0BE58124FBF581900000E0FDA3E0FEA3E0FF74072DFDE43EFEC005EC
:2007C100C006C0077447C0E07425C0E07480C0E0121A0BE58124FAF5817460C0E07425C065
:2007E100E07480C0E0121A0B1581158115817495C0E07425C0E07480C0E0121A0B15811533
:20080100811581900003E0FDA3E0FEA3E0FF8D828E838FF012224FFDA312224FFEA3122233
:200821004FC005C00674B2C0E07424C0E07480C0E0121A0BE58124FBF58174A6C0E07425C6
:20084100C0E07480C0E0121A0B158115811581900003E0FDA3E0FEA3E0FF74032DFDE43E34
:20086100FE8D828E838FF012224FFD7F00C005C00774FCC0E07424C0E07480C0E0121A0B3C
:20088100E58124FBF581E4C0E0C0E074CDC0E07423C0E07480C0E0121A0BE58124FBF5815A
:2008A100900003E0FDA3E0FEA3E0FF74042DFDE43EFE8D828E838FF012224FFD7F00C0059F
:2008C100C0077415C0E07425C0E07480C0E0121A0BE58124FBF5817401C0E0E4C0E074CD4E
:2008E100C0E07423C0E07480C0E0121A0BE58124FBF581900003E0FDA3E0FEA3E0FF74056E
:200901002DFDE43EFE8D828E838FF012224FFDA312224FFEC005C006742EC0E07425C0E043
:200921007480C0E0121A0BE58124FBF5817412C0E0E4C0E074CDC0E07423C0E07480C0E09A
:20094100121A0BE58124FBF581900003E0FDA3E0FEA3E0FF74072DFDE43EFEC005C006C0E1
:20096100077447C0E07425C0E07480C0E0121A0BE58124FAF5817460C0E07425C0E0748075
:20098100C0E0121A0B158115811581900544E0C0E0A3E0C0E074E6C0E07425C0E07480C05A
:2009A100E0121A0BE58124FBF5817405C0E0E4C0E074CDC0E07423C0E07480C0E0121A0BA4
:2009C100E58124FBF581900546E0C0E0A3E0C0E074FFC0E07425C0E07480C0E0121A0BE5A1
:2009E1008124FBF581740DC0E0E4C0E074CDC0E07423C0E07480C0E0121A0BE58124FBF5DE
:200A010081900548E0C0E0A3E0C0E07418C0E07426C0E07480C0E0121A0BE58124FBF581A8
:200A21007407C0E0E4C0E074CDC0E07423C0E07480C0E0121A0BE58124FBF58190054AE079
:200A4100FF7E00C007C0067431C0E07426C0E07480C0E0121A0BE58124FBF5817401C0E031
:200A6100E4C0E074CDC0E07423C0E07480C0E0121A0BE58124FBF581744BC0E07405C0E09B
:200A8100E4C0E0744AC0E07426C0E07480C0E0121A0BE58124FAF5817463C0E07426C0E0C3
:200AA1007480C0E0121A0B158115811581746AC0E07405C0E0E4C0E07498C0E07426C0E0A7
:200AC1007480C0E0121A0BE58124FAF58174B1C0E07426C0E07480C0E0121A0B158115815A
:200AE100158174D1C0E07422C0E07480C0E0121A0B158115811581900520E0FCA3E0FDA303
:200B0100E0FEA3E0FF900524E0F8A3E0F9A3E0FAA3E0FB900524E8C39CF0E99DA3F0EA9EDB
:200B2100A3F0EB9FA3F0900524E0FCA3E0FDA3E0FEA3E0FF90063774E8F0A37403F0A3E442
:200B4100F0A3F08C828D838EF0EFC007C006C005C0041215FE85820885830985F00AF50BAC
:200B6100900654E508F0A3E509F0A3E50AF0A3E50BF09003E8E4F5F012184AA882A983AA6F
:200B8100F0FBD004D005D006D007ECC398FCED99FDEE9AFEEF9BFFC004C005C006C007C068
:200BA10008C009C00AC00B74E6C0E07426C0E07480C0E0121A0BE58124F5F581900524E041
:200BC100FCA3E0FDA3E0FEA3E0FF900637ECF0A3EDF0A3EEF0A3EFF090784075F07D7401CA
:200BE1001215FEAC82AD83AEF0FF900528ECF0A3EDF0A3EEF0A3EFF0C004C0057410C0E00B
:200C01007427C0E07480C0E0121A0BE58124FBF581742CC0E07427C0E07480C0E0121A0B8C
:200C210015811581158190000022AFF0AE83E582900589F0A3EEF0A3EFF0900589E0F50CF8
:200C4100A3E0F50DA3E0F50E850C82850D83850EF012224FFAA312224FFBA312224FFC8A93
:200C6100008B018C07880F89108F11900000E0FDA3E0FEA3E0FF900643EDF0A3EEF0A3EF4B
:200C8100F09006467426F0A3E4F0850F828510838511F0C004C003C002121709D002D003B2
:200CA100D0047404250CF50FE4350DF510850E117405250CF512E4350DF513850E148512C6
:200CC100828513838514F0740512177DA3E412177D74042AFDE43BFE8C070DBD00010E85F4
:200CE10012828513838514F012224FF8A312224FF98D828E838FF0E812177DA3E912177DC2
:200D0100850C82850D83850EF012224FFDA312224FFEA312224FFF8A828B838CF0ED1217B2
:200D21007DA3EE12177DA3EF12177D8A828B838CF0C004C003C002120EB6D002D003D00498
:200D410074032AFDE43BFE8C078D828E838FF012224F6003020E1374042AF512E43BF513CC
:200D61008C1474012512F8E43513F9AF14888289838FF0740612177DA3E412177D850F824E
:200D81008510838511F012224FFF900593E512F0A3E513F0A3E514F08F82C004C003C002B2
:200DA100120F71D002D003D004900000E0FDA3E0FEA3E0FF8D828E838FF012224FFDA312E3
:200DC100224FFEA312224FFF8A828B838CF0ED12177DA3EE12177DA3EF12177D74042AFA4A
:200DE100E43BFB0ABA00010B8A828B838CF012224FFEA312224FFF900597740AF0A3E4F0BB
:200E0100900599EAF0A3EBF0A3ECF08E828F83021024AD0CAE0DAF0E850C82850D83850E88
:200E2100F012224FFAA312224FFBA312224FFC900643EAF0A3EBF0A3ECF09006467426F0EB
:200E4100A3E4F08D828E838FF0021709AFF0AE83E58290058CF0A3EEF0A3EFF090058CE00D
:200E6100FDA3E0FEA3E0FF8D828E838FF012224FFBA312224FFC740A2BFBE43CFC90000AD8
:200E8100E0FABA41281BBBFF011C900006E0F9A3E0FAEBC399F9EC9AFA8D828E838FF0E92E
:200EA10012177DA3EA12177D90058FE4F090058FE0FA70C922AFF0AE83E582900590F0A318
:200EC100EEF0A3EFF0900000E0FDA3E0FEA3E0FFED4E6033900590E0FAA3E0FBA3E0FC8DEA
:200EE100828E838FF012224FFDA312224FFEA312224FFF8A828B838CF0ED12177DA3EE124A
:200F0100177DA3EF12177D900006E0FEA3E0FF900000E0FBA3E0FCA3E0FD74052BFBE43CE5
:200F2100FC900597EEF0A3EFF0900599EBF0A3ECF0A3EDF090000A02102490000AE0FFE4F3
:200F4100BF410104FF3395E0FE900008E0FCA3E0FD900008EC4FF0ED4EA3F090000B744210
:100F6100F02290000A7441F0900008E4F0A3F0220E
:20226F00646872792E72657300612B0043616E206E6F74206F70656E20646872792E726563
:20228F00730A0A004448525953544F4E452050524F4752414D2C20534F4D452053545249CE
:2022AF004E47004448525953544F4E452050524F4752414D2C203127535420535452494E87
:2022CF0047000A004468727973746F6E652042656E63686D61726B2C2056657273696F6E01
:2022EF0020322E3120284C616E67756167653A2043290A00457865637574696F6E20737427
:20230F00617274732C2025642072756E73207468726F756768204468727973746F6E650A2C
:20232F00004448525953544F4E452050524F4752414D2C2032274E4420535452494E470068
:20234F004448525953544F4E452050524F4752414D2C203327524420535452494E470045FE
:20236F007865637574696F6E20656E64730A0046696E616C2076616C756573206F662074E8
:20238F006865207661726961626C6573207573656420696E207468652062656E63686D6171
:2023AF00726B3A0A00496E745F476C6F623A20202020202020202020202025640A00202052
:2023CF0020202020202073686F756C642062653A20202025640A00426F6F6C5F476C6F621C
:2023EF003A202020202020202020202025640A0043685F315F476C6F623A20202020202089
:20240F00202020202025630A00202020202020202073686F756C642062653A2020202563E3
:20242F000A0043685F325F476C6F623A202020202020202020202025630A004172725F3183
:20244F005F476C6F625B385D3A2020202020202025640A004172725F325F476C6F625B38C1
:20246F005D5B375D3A2020202025640A00202020202020202073686F756C642062653A20E4
:20248F0020204E756D6265725F4F665F52756E73202B2031300A005074725F476C6F622D4D
:2024AF003E0A0020205074725F436F6D703A2020202020202020202025640A0020202020D4
:2024CF002020202073686F756C642062653A20202028696D706C656D656E746174696F6E4F
:2024EF002D646570656E64656E74290A00202044697363723A2020202020202020202020E7
:20250F00202025640A002020456E756D5F436F6D703A20202020202020202025640A002009
:20252F0020496E745F436F6D703A2020202020202020202025640A0020205374725F436FBC
:20254F006D703A2020202020202020202025730A00202020202020202073686F756C6420C4
:20256F0062653A2020204448525953544F4E452050524F4752414D2C20534F4D45205354AC
:20258F0052494E470A004E6578745F5074725F476C6F622D3E0A00202020202020202073F3
:2025AF00686F756C642062653A20202028696D706C656D656E746174696F6E2D6465706596
:2025CF006E64656E74292C2073616D652061732061626F76650A00496E745F315F4C6F6355
:2025EF003A202020202020202020202025640A00496E745F325F4C6F633A2020202020206C
:20260F00202020202025640A00496E745F335F4C6F633A202020202020202020202025641B
:20262F000A00456E756D5F4C6F633A20202020202020202020202025640A005374725F3159
:20264F005F4C6F633A202020202020202020202025730A00202020202020202073686F75F3
:20266F006C642062653A2020204448525953544F4E452050524F4752414D2C2031275354B7
:20268F0020535452494E470A005374725F325F4C6F633A20202020202020202020202573B1
:2026AF000A00202020202020202073686F756C642062653A2020204448525953544F4E4531
:2026CF002050524F4752414D2C2032274E4420535452494E470A0054696D6520656C61702A
:2026EF007365643A20202020202020202020256C752E2530336C75207365636F6E64730A5F
:20270F00004468727973746F6E657320706572207365636F6E643A2025640A0A0054657351
:20272F00742066696E69736865642E0A0A005265676973746572206F7074696F6E20736574
:08274F006C65637465642E00E3
:1A2762005265676973746572206F7074696F6E2073656C65637465642E00C8
:200F7100E582900596F0900593E0FDA3E0FEA3E0FF900596E0FC8D828E838FF012177D8CFE
:200F910082C007C006C005C004121374E5828583F0D004D005D006D00745F0700B8D828E0D
:200FB100838FF0740312177DECFB24FB4064EB2B2B900FC673020FD5020FDF02100C021038
:200FD100170210188D828E838FF0E402177D900006E0FBA3E0FCC374649BE464808CF063D9
:200FF100F08095F0500A8D828E838FF0E402177D8D828E838FF0740302177D8D828E838F1D
:20101100F0740102177D228D828E838FF0740202177D22AF83E58290059CF0A3EFF0900504
:201031009CE0FEA3E0FF74022EFEE43FFF900599E0FBA3E0FCA3E0FD900597E0F9A3E0FA55
:20105100EE29FEEF3AFF8B828C838DF0EE12177DA3EF02177DAFF0AE83E5829005A5F0A3E9
:20107100EEF0A3EFF09005A1E0FEA3E0FF74052EFCE43FFD9005A5E0F527A3E0F528A3E04D
:20109100F5298C22EDC52225E0C52233F523E5222527F524E5233528F5258529269005A371
:2010B100E0F52AA3E0F52B8524828525838526F0E52A12177DA3E52B12177D74062EF9E4F7
:2010D1003FC925E0C933FAE92527F9EA3528FAAB2989828A838BF0E52A12177DA3E52B12AC
:2010F100177D74142EFAE43FCA25E0CA33FBEA2527FAEB3528F9AB298A8289838BF0EC12DB
:20111100177DA3ED12177D90059EE0F530A3E0F531A3E0F53290064CECF0A3EDF090003269
:20113100C007C006C005C00412179685822A85832BD004D005D006D007E52A2530F527E5AA
:201151002B3531F52885322974062EF52CE43FF52D8C2E8D2FC3E52C952EE52D6480852F2B
:20117100F063F08095F0402CE52E252EF8E52F33FBE82527F8EB3528FBAA2988828B838A26
:20119100F0EC12177DA3ED12177D052EE4B52EC5052F80C1E52A2530F8E52B3531FAAB32A9
:2011B1001CEC2C28F8E43AFA88828A838BF012224FFCA312224FFD0CBC00010D88828A8391
:2011D1008BF0EC12177DA3ED12177D90064C740F2EF0E43FA3F0900032121796AE82AF839F
:2011F100EE2530FEEF3531FFAD32E5222EFEE5233FFF8524828525838526F012224FFBA3DD
:2012110012224FFC8E828F838DF0EB12177DA3EC12177D9000067405F0A3E4F022E582904A
:2012310005A9F0FF9005A8E0FEEFB5060280047582002290000AEFF075820122AFF0AE8339
:20125100E5829005ADF0A3EEF0A3EFF09005ADE0F533A3E0F534A3E0F5359005AAE0FAA382
:20127100E0FBA3E0FC78027900C3740298E4648089F063F08095F04062E82533FDE9353475
:20129100FEAF358D828E838FF012224FFD740128FEE439FFC000C001EE2AFEEF3BF98C0738
:2012B1008E8289838FF012224F9005A8F08D82C004C003C002C001C00012122EE582D00070
:2012D100D001D002D003D004D001D000709B9005B27441F008B8009109808E9005B0E8F096
:2012F100A3E9F09005B2E0FFC3648094D74010EF648094DA50099005B07407F0A3E4F0BF59
:201311005204900001229005ADE0FDA3E0FEA3E0FF90064EEAF0A3EBF0A3ECF08D828E83B6
:201331008FF01217B6AE82AF83C3E49EE464808FF063F08095F050279005B0E0FEA3E0FFDC
:201351009005B074072EF0E43FA3F09005B0E0FEA3E0FF900006EEF0A3EFF090000122900A
:15137100000022E5829005B3F0FFBF020490000122900000227D
:0D006C0090061A74B6F0A37405F0A3E4F03A
:20138600AF83E5829005B4F0A3EFF090061AE0FDA3E0FEA3E0FF90061DEDF0A3EEF0A3EFC0
:2013A600F09005B4E0FBA3E0FC5303FC9005B474042BF0E43CA3F09005B4E0FBA3E0FC9080
:2013C600061AEB2DF0EC3EA3F0A3EFF090061DE0FDA3E0FEA3E0FF8D828E838FF0229000BC
:2013E600002290000175F0002290000022C015858115E51524FBFF1F1F1F8F0187050987EA
:1B140600060987078D828E838FF0743012177DA3747512177D900000D015227C
:0500790090062FE4F0E9
:20142100900623E4F0A3F0A3F0A3F090C3501214C77582011215427582011214BB758201A3
:201441000214F11214FDAE82AF837D007C009006377432F0A3E4F0A3F0A3F08E828F838D57
:20146100F0EC1215FEAC82AD83AEF0FF900623E0F8A3E0F9A3E0FAA3E0FB900654E8F0A302
:20148100E9F0A3EAF0A3EBF09003E8E4F5F0C007C006C005C00412184AA882A983AAF0FBBE
:2014A100D004D005D006D007E82CFCE93DFDEA3EFEEB3F8C828D838EF022E582900627F080
:2014C10013920092AF22AF83E582900628F0A3EFF0900628E0FEA3E0FFBEFF05BFFF02801A
:2014E1000A8F8F7F008E8ED28C8002C28CD28822E58290062AF0139201928D2290062BE5DA
:201501008DF090062CE58CF090062DE58CF090062CE0FF90062DE0FEEFB50602800C9006F6
:201521002BE58DF090062CE58CF090062BE0FE7F0090062CE07C004207EC42068F828E831F
:2015410022E58290062EF013920292A922C0E0C082C083C007C0D075D000D28890062FE089
:20156100FF8F9090062FEF04F0900623E02401F0A3E03400F0A3E03400F0A3E03400F0D031
:20158100D0D007D083D082D0E032E582900630F0309CFD900630E0FF8F99BF0A06309CFDD1
:0415A10075990D2209
:2015A500AFF0AE83E582900634F0A3EEF0A3EFF0900634E0FDA3E0FEA3E0FF900631E0FAE7
:2015C500A3E0FBA3E0FC8D368E378F388A828B838CF012224FF9A3AA82AB838536828537B2
:1915E500838538F0E912177DA3858236858337E970DA8D828E838FF0221B
:2015FE00AF82AE83ADF0FC90063BEFF0A3EEF0A3EDF0A3ECF090063FE4F0A3F0A3F0A3F040
:20161E00900637E0FCA3E0FDA3E0FEA3E0FF75362090063BE0F8A3E0F9A3E0FAA3E0FB3362
:20163E009203E828F8E933F9EA33FAEB33FB90063BE8F0A3E9F0A3EAF0A3EBF090063FE0D5
:20165E00F8A3E0F9A3E0FAA3E0FBE828F8E933F9EA33FAEB33FB90063FE8F0A3E9F0A3EAFA
:20167E00F0A3EBF030031E90063FE0F8A3E0F9A3E0FAA3E0FB90063F740148F0A3E9F0A3C8
:20169E00EAF0A3EBF090063FE0F8A3E0F9A3E0FAA3E0FBC3E89CE99DEA9EEB9F40319006CA
:2016BE003FE8C39CF0E99DA3F0EA9EA3F0EB9FA3F090063BE0F8A3E0F9A3E0FAA3E0FB9095
:2016DE00063B740148F0A3E9F0A3EAF0A3EBF0D53602800302162F90063BE0FCA3E0FDA3E0
:0B16FE00E0FEA3E08C828D838EF022C2
:06004200E478FFF6D8FD92
:20170900AFF0AE83E582900648F0A3EEF0A3EFF0900648E0F536A3E0F537A3E0F538AA3690
:20172900AB37AC38900643E0F8A3E0F9A3E0FF900646E0F539A3E0F53AAD39AE3A153974FF
:20174900FFB53902153AED4E6020888289838FF012224FFEA3A882A9838A828B838CF0EEF4
:1417690012177DA3AA82AB8380CF8536828537838538F0222F
:20002000791AE94400601B7A01902762788C75A006E493F2A308B8000205A0D9F4DAF27551
:02004000A0FF1F
:19177D0020F71030F6118883A88220F507F6A88375830022F280F7F022EE
:20179600AA83AB828BF090064CE0A4F8A9F08AF0E0A429F98BF0A3E0A429F58388822222B6
:2017B600AFF0AE83E582900651F0A3EEF0A3EFF0900651E0FDA3E0FEA3E0FF90064EE0F582
:2017D60036A3E0F537A3E0F5388D008E018F04888289838CF012224FF87C00A936AA37ABBB
:2017F6003889828A838BF012224FF97B00E8C399F8EC9BFC88028C03E84C702885368285AB
:2018160037838538F012224F601A0DBD00010E900651EDF0A3EEF0A3EFF00536E4B536A9FB
:14183600053780A5900651EDF0A3EEF0A3EFF08A828B83223A
:20184A00A882A983AAF0FB88F0900654E0A4FCADF089F0E0A42DFDE435F0FE88F0A3E0A447
:20186A002DFDE5F03EFEE433FF89F0E0A42EFEE5F03FFF88F0A3E0A42EFEE5F03FFF8AF079
:20188A00900654E0A42EFEE5F03FFF8BF0E0A42FFF8AF0A3E0A42FFF89F0A3E0A42FFF883F
:0C18AA00F0A3E0A42F8EF08D838C82222E
:200048007800E84400600A790075A000E4F309D8FC788CE84406600C7907900000E4F0A31F
:04006800D8FCD9FAED
:2018B600AF83E58290065AF0A3EFF090065AE0FEA3E0FF33E433FD6009C3E49EFBE49FFC58
:2018D60080048E038F04900658E0FEA3E0FF33E433FA6009C3E49EF8E49FF980048E008FF5
:2018F6000190065CE8F0A3E9F08B828C83C005C002121927AE82AF83D002D005EA6D600CCA
:11191600C3E49EFCE49FFD8C828D83228E828F83227B
:20192700AF83E58290065EF0A3EFF0900660E4F0A3F090065CE0FEA3E0FF7D1090065EE091
:20194700FBA3E0FC339204ECCB25E0CB33FC90065EEBF0A3ECF0900660E0FBA3E0CB25E015
:20196700CB33FC900660EBF0A3ECF0300412900660E0FBA3E0FC90066074014BF0A3ECF05B
:20198700900660E0FBA3E0FCC3EB9EEC9F401D900660EBC39EF0EC9FA3F090065EE0FBA3FA
:1A19A700E0FC90065E74014BF0A3ECF0DD8E90065EE0FEA3E08E82F58322BD
:2019C100C01585811512158BD01522AFF0AE83E582900663F0A3EEF0A3EFF0900663E0FD64
:2019E100A3E0FEA3E0FF900662E0FC900676E4F0A3F0A3F0900679EDF0A3EEF0A3EFF0908A
:201A0100067CECF09019C1021B0EC015858115E51524FBFF900676E4F0A3F0A3F0E51524A6
:1D1A2100FBF8900679E6F008A3E6F008A3E6F090067CEFF09019C1121B0ED0152231
:201A3E00E582900672F0FF900668E0C0E0A3E0C0E0A3E0C0E07468C0E0741AC0E0900666C0
:201A5E00E0C0E0A3E0C0E08F8222158115811581900670E02401F0A3E03400F022E5829015
:201A7E000673F02430FF24C6500A74072FFF3005034307208F82021A3EE582900674F0FF32
:201A9E00C4540FF582C007121A7BD00753070F8F82021A7BE582900675F090066BE0FCA352
:201ABE00E0FDA3E0FEA3E0FF90066FE0FB900675E0FA753620EB2BFBEF235401F88B014953
:201ADE00FBEC2CFCED33FDEE33FEEF33FFC3EB9A4007EBC39AFB430401D536D990066BEC91
:201AFE00F0A3EDF0A3EEF0A3EFF090066FEBF022AF83E58290067DF0A3EFF090067DE0FE44
:201B1E00A3E0FF900666EEF0A3EFF0900676E0FDA3E0FEA3E0FF900668EDF0A3EEF0A3EFEF
:201B3E00F0900670E4F0A3F0900679E0FDA3E0FEA3E0FF8D828E838FF012224FFC9006790E
:201B5E0074012DF0E43EA3F0A3EFF0EC700302222BBC25028003022223C206C207C208C226
:201B7E0009C20AC20BC20CC20D90067FE4F0900680F090068174FFF0900679E0FDA3E0FE32
:201B9E00A3E0FF8D828E838FF012224FFBA3AD82AE83900679EDF0A3EEF0A3EFF09006837D
:201BBE00EBF0BB25088B82121A3E021B468B02BA3000403CEA24C64037900681E0FABAFF82
:201BDE0021C005C006C007900680E075F00AA42B24D0900680F0D007D006D00570A5D207D6
:201BFE0080A1EA75F00AA42B24D0900681F08093900683E0FBBB2E15900681E0FABAFF02D2
:201C1E008003021BA1900681E4F0021BA18B02BA61004010EA2485400B90068374DF5BF02F
:201C3E00D2058002C205900683E0FBBB2002806DBB2B028063BB2D028059BB42028063BB7D
:201C5E0043028068BB4403021EAABB4603021ECCBB4803021BA1BB4903021EAABB4A0302DE
:201C7E001BA1BB4C028040BB4F03021EB4BB5003021E16BB53028070BB5403021BA1BB55BC
:201C9E0003021EBCBB5803021EC4BB5A03021BA1021ED0D206021BA1D208021BA1D209027C
:201CBE001BA1D20B021BA1D20C021BA1300B1490067CE0FF1F90067CEFF08F01900683E733
:201CDE00F0801990067CE0FF1F1F90067CEFF08F01870609870719900683EEF0900683E080
:201CFE00F582121A3E021EDC90067CE0FF1F1F1F90067CEFF08F0187050987060987071948
:201D1E001990066BEDF0A3EEF0A3EFF08D828E838FF0122237AE82900681E0FFBFFF059028
:201D3E000681EEF0200636900680E0FFC3EE9F502C900680EFC39EF0900680E0FF8F051F05
:201D5E00900680EFF0ED6010758220C007C006121A3ED006D00780E5900680EFF0900681E7
:201D7E00E0FFC00690066BE0FAA3E0FDA3E0FE8A828D838EF012224FF516D006E516603F2C
:201D9E008F051FC3E464808DF063F08095F0502FC006851682C007C006121A3ED006D0070C
:201DBE0090066BE0FAA3E0FDA3E0FE0ABA00010D90066BEAF0A3EDF0A3EEF0D00680A32062
:201DDE000603021EDC900680E0FFC3EE9F4003021EDC900680EFC39EF0900680E0FF8F067C
:201DFE001F900680EFF0EE7003021ED7758220C007121A3ED00780E690067CE0FE1E1E1E8A
:201E1E0090067CEEF08E018702098705098706191990066BEAF0A3EDF0A3EEF090066DE080
:201E3E00FEBE800040089006837443F08020BE600040089006837450F08013BE4000400894
:201E5E009006837449F080069006837458F0900683E0FEF582C006121A3E75823A121A3E0A
:201E7E00758230121A3E758278121A3ED006BE4902800EBE5002800990066CE0F582121A4F
:201E9E009790066BE0F582121A978032D20A90067F740AF0802890067F7408F08020900602
:201EBE007F740AF0801890067F7410F08010D20D800C8B82121A3E8005900680EFF0300DCD
:201EDE007790067CE0FF1F1F1F1F90067CEFF08F0187030987050987060987071919199058
:201EFE00066BEBF0A3EDF0A3EEF0A3EFF090066B7457F0A37427F0A37480F090066BE0F5AE
:201F1E0017A3E0F518A3E0F51974012517FAE43518FBAF1990066BEAF0A3EBF0A3EFF0856C
:201F3E0017828518838519F012224FFF7003021B468F82121A3E80C390067FE0F5177003B2
:201F5E00021B4690068A7489F0A37406F0300B4A90067CE0FE1E90067CEEF08E01E7FE33BC
:201F7E0095E0FDFBFA90066BEEF0A3EDF0A3EBF0A3EAF0300A0302203290066BE0FAA3E093
:201F9E00A3E0A3E07B007D007E0090066BEAF0A3EBF0A3EDF0A3EEF0807A300C2E90067CD7
:201FBE00E0FE1E1E1E1E90067CEEF08E01870209870309870509870619191990066BEAF0C1
:201FDE00A3EBF0A3EDF0A3EEF0804990067CE0FE1E1E90067CEEF08E01870509870619EEC7
:201FFE003395E0FBFA90066BEDF0A3EEF0A3EBF0A3EAF0200A1E90066BE0FAA3E0FBA3E0A8
:20201E00A3E07D007E0090066BEAF0A3EBF0A3EDF0A3EEF0300A3090066BE0FAA3E0FBA364
:20203E00E0FDA3E0FE30E71DC3E49AFAE49BFBE49DFDE49EFE90066BEAF0A3EBF0A3EDF064
:20205E00A3EEF08002C20AD20E751A89751B0675160090066FE4F0851782121AB2200E2D4A
:20207E0090066FE0C4FA851A82851B83E0FF4202851A82851B83EAF0151A74FFB51A021592
:20209E001B90068AE51AF0A3E51BF0800C90066FE0FA851A82851B83F00516900682E51698
:2020BE00F0B20E90066BE0FAA3E0FBA3E0FEA3E0FFEA4B4E4F709B90068AE51AF0A3E51B67
:2020DE00F0900682E516F0900680E0FF70069006807401F0200727200624E51604FF9006DD
:2020FE0080E0FEC3EF9E5011758220C007C006121A3ED006D0071E80EA900680EEF0300A42
:20211E001175822D121A3E900680E014900680F0802D900682E0FF602630081175822B124B
:20213E001A3E900680E014900680F0801230090F758220121A3E900680E014900680F0208E
:20215E00062F900682E0FF900680E0FE8E051E900680EEF0C3EF9D50363007047D3080025D
:20217E007D208D82C007C006121A3ED006D00780DB900680E0FF900682E0FDC39F50099061
:20219E000680EFC39DF0800C900680E4F08005900680EEF090068AE0FEA3E0FF900682E0F5
:2021BE00FD8D031DEB603EB20E200E140EBE00010F8E828F83E0C4540FFB90066FF0800E49
:2021DE008E828F83E0FB53030F90066FEBF090066FE0F582C007C006C005121A7BD005D0A5
:2021FE0006D00780BC200603021B46900680E0FF8F061FEE7003021B46758220C007121AA5
:19221E003ED00780EB8C82121A3E021B46900670E0FEA3E08E82F583223B
:0B2757003C4E4F20464C4F41543E00CA
:18223700AA82AB8312224F6003A380F8C3E5829AF582E5839BF583225C
:0D00130075813A12226BE582600302000E37
:1C224F0020F71430F6148883A88220F507E6A88375830022E280F7E49322E0229E
:04226B007582002256
:00000001FF
