:03000000020008F3
:0300610002000397
:0500030012006480FE04
:2000640074FFC0E07406C0E07480C0E01200DA1581158115817402C0E07407C0E07480C028
:20008400E01200DA1581158115817424C0E07407C0E07480C0E01200DA15811581158180B9
:1200A400FEAF82309CFD8F99BF0A06309CFD75990D2255
:2006FF000A0D004C6967687435322070726F6A656374202D2D20536570203238203230314F
:14071F00320A0A0D0048656C6C6F20576F726C64210A0D001F
:06003700E478FFF6D8FD9D
:200015007900E94400601B7A0090073E780075A000E493F2A308B8000205A0D9F4DAF2754D
:02003500A0FF2A
:20003D007800E84400600A790075A000E4F309D8FC7800E84400600C7900900000E4F0A3C3
:04005D00D8FCD9FAF8
:2000B600C0098581091200A5D0092285823185833285F033E4F52EF52FF5308508349000E5
:2000D600B60201AFC009858109E50924FBFF8F34E4F52EF52FF530E50924FBF88631088661
:0D00F600320886339000B61201AFD0092207
:20010300AF82C024C025C026741AC0E07401C0E0C022C0238F8222158115811581052CE4EA
:20012300B52C02052D22AF8274302FFF24C6500A74072FFF3000034307208F82020103E5FC
:2001430082FFC4540FF582C007120129D007740F5FF58202012985820A85270B85280C8518
:20016300290D852A0EAA2B750F20EA2AFAE50E235401FF8A064EFAE50B250BF50BE50C337C
:20018300F50CE50D33F50DE50E33F50EC3EA950A4008EAC3950AFA430B01D50FCD850B277A
:2001A300850C28850D29850E2A8A2B22858222858323852E24852F25853026E4F52CF52D2E
:2001C300AD31AE32AF338D828E838FF01206DFFC74012DF531E43EF5328F33ECFF700302B7
:2001E30006C0BF250280030206B8C201C202C203C204C205C206C207C20875350075360084
:200203007CFFAA31AB32AE338A828B838EF01206DFFFA3AA82AB838A318B328E33BF250718
:200223008F8212010380998F3874D025385026E53824C64020BCFF12E53675F00AA4FD2F0F
:2002430024D0F53670C2D20280BEEC75F00AA42F24D0FC80B3BF2E07BCFFAD7C0080A98F57
:2002630005BD6100400CED248540075307DFD2008002C200BF2002806DBF2B028063BF2D57
:20028300028059BF42028063BF43028068BF4403020459BF460302046FBF480302020BBFF4
:2002A3004903020459BF4A0302020BBF4C028040BF4F03020460BF50030203EEBF53028098
:2002C3005CBF540302020BBF5503020465BF580302046ABF5A0302020B020473D201020213
:2002E3000BD20302020BD20402020BD20602020BD20702020B30060CE53414FE8E348E019A
:2003030087078011E53424FEFE8E348E018705098706198D078F8212010302047CE534247C
:20032300FDFE8E348E01870309870509870619198B278D288E298B828D838EF0C0041206F2
:20034300C7AD82AE83D004BCFF028D0420012CC3ED95365026E536C39DF536AE368E031EDA
:200363008E36EB6014758220C006C005C004120103D004D005D00680E48E368C0685278274
:200383008528838529F01206DFFCFF60308E041EC3E464808CF063F08095F050208F82C0BA
:2003A30006C005120103D005D006AA27AB28AC290ABA00010B8A278B288C2980C0200103E8
:2003C30002047CC3ED9536400302047CE536C39DF536AE368E041E8E36EC700302047A7506
:2003E3008220C006120103D00680E9E53424FDFC8C348C01870209870309870419198A2727
:200403008B288C29AC29BC800040047F438014BC600040047F50800BBC400040047F498084
:20042300027F588F82C00712010375823A120103758230120103758278120103D007BF490A
:2004430002800BBF500280068528821201428527821201428023D20575350A801C753508F2
:20046300801775350A8012753510800DD20880098F8212010380028E3630085CE53424FCB8
:20048300FE8E348E0187020987030987040987061919198A278B288C298E2A75273375283C
:2004A3000775298085273985283A85293B74012539FAE4353AFCAE3B8A278C288E29853980
:2004C30082853A83853BF01206DFFEFF70030201C38F8212010380CCE53570030201C3753D
:2004E300371530062DE53414FC8C348C01E7FA3395E0FBFCFE8A278B288C298E2A200566FA
:20050300AA277B007C007E008A278B288C298E2A8054300721E53424FCFE8E348E01870284
:200523000987030987040987061919198A278B288C298E2A8030E53424FEFE8E348E01871E
:200543000409870619EE3395E0FBFA8C278E288B298A2A200510AA27AB287C007E008A2705
:200563008B288C298E2A300525AA27AB28AC29E52AFE30E717C3E49AFAE49BFBE49CFCE435
:200583009EFE8A278B288C298E2A8002C205D209A9377E00752B00853582C006C0011201F3
:2005A30059D001D00620090DE52BC4FCE7FB4CF71989378002A72B0E8E05B209E52745280B
:2005C3004529452A70CE89378E05E5367003753601200224200121ED04FEAC36C3EE9C507A
:2005E30015758220C006C005C004120103D004D005D0061C80E68C3630050E75822DC00578
:20060300120103D00515368023ED602030030E75822BC005120103D0051536800F30040C64
:20062300758220C005120103D0051536200124AE368E041E8E36C3ED9C502B3002047C305F
:2006430080027C208C82C006C005120103D005D00680DEC3ED95365008E536C39DF53680C8
:200663000775360080028E36A9378D068E051EED6026B20920090A09E7C4540FFD8D2B80AE
:20068300078705740F5DF52B852B82C006C001120129D001D00680D42001030201C3AE3606
:2006A3008E051EED70030201C3758220C006120103D00680EB8F821201030201C3852C820C
:0406C300852D8322DC
:0B0733003C4E4F20464C4F41543E000E
:1806C700AA82AB831206DF6003A380F8C3E5829AF582E5839BF5832274
:0D00080075813B1206FBE5826003020003D8
:1C06DF0020F71430F6148883A88220F507E6A88375830022E280F7E49322E0222A
:0406FB0075820022E2
:00000001FF
