:03000000020030CB
:10003000756E00759941759961800675993F756E69
:10004000017599628005759963801875E05AB45AF4
:10005000F5B47A0675993F756E01B47AE975993FE2
:10006000756E01756002D5600675993F756E01D594
:100070006005759964800675993F756E017560A578
:10008000E560B4A505759965800675993F756E01A3
:1000900075990D75990A7599427881E8B4812F791F
:1000A00043E9B443297A27EAB427237BC2EBB4C2DD
:1000B0001D7CF1ECB4F1177D04EDB404117E92EED9
:1000C000B4920B7F1FEFB41F057599618006759977
:1000D0003F756E0175D080400675993F756E015071
:1000E0000775D0004002500675993F756E017599ED
:1000F000627892B8910875993F756E017891B891C0
:10010000FB79A3B9A20875993F756E0179A2B9A2CE
:10011000FB7AB4BAB30875993F756E017AB3BAB376
:10012000FB7BC5BBC40875993F756E017BC4BBC41E
:10013000FB7CD6BCD50875993F756E017CD5BCD5C6
:10014000FB7DE7BDE60875993F756E017DE6BDE66E
:10015000FB7EF8BEF70875993F756E017EF7BEF716
:10016000FB7F09BF080875993F756E017F08BF08BE
:10017000FB75D0007834B83500500FB83400400A11
:10018000B833004005759963800675993F756E0117
:1001900075D080C3400BD35008B340057599648077
:1001A0000675993F756E017860756012E560B4124E
:1001B0001D76F5E560B4F5167960756012E560B4FA
:1001C000120C77F5E560B4F50575996580067599AB
:1001D0003F756E0178307613B6120875993F756ECB
:1001E000017612B612FB79307735B7340875993F2E
:1001F000756E017734B734FB7830C37634B635008A
:10020000500FB63400400AB6330040057599668039
:100210000675993F756E017560C07531C17532C242
:10022000C374C1B5311D401BB5320675993F756E5B
:10023000015010B56006759924756E0140057599D9
:1002400067800675993F756E0175990D75990A75E8
:100250009943752F80800E307F1C307E1175993F39
:10026000756E018011207FEF759921756E01207EDA
:1002700005759961800675993F756E0175E079B4D1
:10028000790A745AB45A05759962800675993F7552
:100290006E017480800E601B7400601075993F754C
:1002A0006E01800F70F0759921756E01700575995A
:1002B00063800675993F756E01752F80207F0280DF
:1002C0000FC27F207F0AB27F307F05759964800658
:1002D00075993F756E01752E08C38273401FD382D6
:1002E00073501AB0725016727350127272500EC35D
:1002F00072735009A0725005759965800675993F13
:10030000756E01752E08C3A2735015A2724011C3F9
:10031000927120710BD392713071057599668006C8
:1003200075993F756E01752E00D273A273500BD272
:1003300072A2725005759967800675993F756E01B6
:10034000752E088009A273400F10720C800510737F
:10035000F48005759968800675993F756E01752F53
:100360000075F080800E30F71C30F61175993F75DE
:100370006E01801120F7EF759921756E0120F60549
:10038000759969800675993F756E0175F08020F743
:1003900002800FC2F720F70AB2F730F70575996AA5
:1003A000800675993F756E0175F008C382F3401F92
:1003B000D382F3501AB0F2501672F3501272F25008
:1003C0000EC372F35009A0F2500575996B80067543
:1003D000993F756E0175F008C3A2F35015A2F24063
:1003E00011C392F120F10BD392F130F10575996CA4
:1003F000800675993F756E01752E00D2F3A2F350F9
:100400000BD2F2A2F2500575996D800675993F7571
:100410006E0175F0088009A2F3400F10F20C800500
:1004200010F3F4800575996E800675993F756E011D
:1004300075990D75990A75994474856444600964C9
:10044000C17005759961800675993F756E01748557
:1004500000C333F560640A7016E560336415700FED
:10046000748500C333500833400575996280067562
:10047000993F756E017485C313F560006442701571
:10048000E5601364A1700E7485C313500813400512
:10049000759963800675993F756E017485C323F560
:1004A00060640B7028E560D323641670207485C3E4
:1004B00003F56064C27016E560036461700F74FF39
:1004C000C323400903034005759964800675993F6D
:1004D000756E0175990D75990A759945748004B406
:1004E000810E74FFC3044008B4000575996180064D
:1004F00075993F756E017866788008B8817778FFC6
:10050000C3084071B8006E798009B9816879FFC36A
:10051000094062B9005F7A800ABA81597AFFC30A3A
:100520004053BA00507B800BBB814A7BFFC30B401A
:1005300044BB00417C800CBC813B7CFFC30C40353C
:10054000BC00327D800DBD812C7DFFC30D4026BDDA
:1005500000237E800EBE811D7EFFC30E4017BE00AD
:10056000147F800FBF810E7FFFC30F4008BF0005BF
:10057000759962800675993F756E0178607931765C
:100580008006B6811D76FFC3064017B6001477803B
:1005900007B7810E77FFC3074008B7000575996359
:1005A000800675993F756E01756034E560B4340559
:1005B000759964800675993F756E017539800539A6
:1005C000E539B481127539FFC30539400AE539B4FC
:1005D0000005759965800675993F756E0174011463
:1005E000B4000CC3144008B4FF0575996680067505
:1005F000993F756E017866780118B80067C3184096
:1006000063B8FF60790119B9005AC3194056B9FFA0
:10061000537A011ABA004DC31A4049BAFF467B010A
:100620001BBB0040C31B403CBBFF397C011CBC0012
:1006300033C31C402FBCFF2C7D011DBD0026C31DF4
:100640004022BDFF1F7E011EBE0019C31E4015BE05
:10065000FF127F011FBF000CC31F4008BFFF0575BD
:100660009967800675993F756E01786079317601DA
:1006700016B60019C3164015B6FF12770117B7005A
:100680000CC3174008B7FF05759968800675993F38
:10069000756E017539011539E539B40012753900E7
:1006A000C31539400AE539B4FF05759969800675A7
:1006B000993F756E0175990D75990A7599467891EE
:1006C0008839E539B4914479928939E539B4923B56
:1006D0007A938A39E539B493327B948B39E539B40E
:1006E00094297C958C39E539B495207D968D39E532
:1006F00039B496177E978E39E539B4970E7F988F67
:1007000039E539B49805759961800675993F756E1C
:100710000176918639E539B4910E77928739E539BA
:10072000B49205759962800675993F756E017531B1
:1007300091853139E539B4910575996380067599CC
:100740003F756E01753991A839B8913D753992A9F7
:1007500039B99235753993AA39BA932D753994AB55
:1007600039BB9425753995AC39BC951D753996AD55
:1007700039BD9615753997AE39BE970D753998AF55
:1007800039BF9805759964800675993F756E017833
:10079000607931753991A639B6910D753992A739BD
:1007A000B79205759965800675993F756E017491CC
:1007B000F8B8912F7492F9B992297493FABA9323E5
:1007C0007494FBBB941D7495FDBD95177496FDBD87
:1007D00096117497FEBE970B7498FFBF9805759994
:1007E00066800675993F756E01786079317491F66F
:1007F000B6910B7492F7B792057599678006759953
:100800003F756E0175607978007434F560A860B842
:100810003405759968800675993F756E0174007985
:10082000317531567860756034E6B43409E7B456F2
:1008300005759969800675993F756E0175990D75F5
:10084000990A7599477455E470117455F4B4AA0B5C
:100850007497C4B47905759961800675993F756E72
:10086000017583127582FDA3E583B41220E582B47D
:10087000FE1BA3E583B41215E582B4FF10A3E58344
:10088000B4130AE582B40005759962800675993F34
:10089000756E017434751357C513B4570AE513B454
:1008A0003405759963800675993F756E017491756D
:1008B00029787929C7B4780AE529B491057599642E
:1008C000800675993F756E0174437EA2CEB4A2096D
:1008D000EEB44305759965800675993F756E01758F
:1008E000990D75990A75994875603C74995560B46D
:1008F00018297860763C749956B4181F7931773C82
:10090000749957B41815783C749958B4180D793CFB
:10091000749959B41805759961800675993F756E7B
:10092000017A3C74995AB4180D7B3C74995BB418E5
:1009300005759962800675993F756E017C3C7499C6
:100940005CB4180D7D3C74995DB41805759963808D
:100950000675993F756E017E3C74995EB4180D7FE3
:100960003C74995FB41805759964800675993F7554
:100970006E017499543CF5E0B418057599658006CC
:1009800075993F756E0175609953603C8560E0B460
:100990001805759966800675993F756E0175603CFE
:1009A00074995260E560B418057599678006759969
:1009B0003F756E0175990D75990A75994975605164
:1009C00074924560B4D32978607651749246B4D35A
:1009D0001F79317751749247B4D315785174924886
:1009E000B4D30D7951749249B4D3057599618006D9
:1009F00075993F756E017A5174924AB4D30D7B514B
:100A000074924BB4D305759962800675993F756EE3
:100A1000017C5174924CB4D30D7D5174924DB4D37A
:100A200005759963800675993F756E017E517492C4
:100A30004EB4D30D7F5174924FB4D3057599648031
:100A40000675993F756E0174924451F5E0B4D30573
:100A5000759965800675993F756E01756092436062
:100A6000518560E0B4D305759966800675993F7528
:100A70006E0175605174924260E560B4D30575995A
:100A800067800675993F756E0175990D75990A75A0
:100A9000994A75605174336560B462297860765103
:100AA000743366B4621F79317751743367B4621559
:100AB0007851743368B4620D7951743369B4620546
:100AC000759961800675993F756E017A5174336A24
:100AD000B4620D7B5174336BB46205759962800604
:100AE00075993F756E017C5174336CB4620D7D5104
:100AF00074336DB46205759963800675993F756EA0
:100B0000017E5174336EB4620D7F5174336FB462E1
:100B100005759964800675993F756E01743364514B
:100B2000F5E0B46205759965800675993F756E01AB
:100B30007560336360518560E0B4620575996680C5
:100B40000675993F756E0175605174336260E5609A
:100B5000B46205759967800675993F756E01759940
:100B60000D75990A75994B756003740414600BD563
:100B700060FAB40105759961800675993F756E013B
:100B80007803740414605ED8FBB4015979037404CB
:100B9000146052D9FBB4014D7A037404146046DA30
:100BA000FBB401417B03740414603ADBFBB40135F0
:100BB0007C03740414602EDCFBB401297D037404EF
:100BC000146022DDFBB4011D7E037404146016DE84
:100BD000FBB401117F03740414600ADFFBB4010548
:100BE000759962800675993F756E0175990D7599B5
:100BF0000A75994C7599307560517433C3256085B9
:100C0000D070B4846BE57054C4640454FE70617891
:100C10006076517433C32685D070B48453E5705424
:100C2000C4640454FE7049793177517433C3278505
:100C3000D070B4843BE57054C4640454FE703178C1
:100C4000517433C32885D070B48425E57054C464CE
:100C50000454FE701B79517433C32985D070B48459
:100C60000FE57054C4640454FE70057599618006E4
:100C700075993F756E017A517433C32A85D070B46B
:100C80008425E57054C4640454FE701B7B51743396
:100C9000C32B85D070B4840FE57054C4640454FE33
:100CA0007005759962800675993F756E017C517467
:100CB00033C32C85D070B48425E57054C4640454C7
:100CC000FE701B7D517433C32D85D070B4840FE545
:100CD0007054C4640454FE70057599638006759958
:100CE0003F756E017E517433C32E85D070B4842558
:100CF000E57054C4640454FE701B7F517433C32FD9
:100D000085D070B4840FE57054C4640454FE70053B
:100D1000759964800675993F756E017433C32451CB
:100D200085D070F5E0B4840FE57054C4640454FEBB
:100D30007005759965800675993F756E01759931D5
:100D40007560817493C3256085D070B4146BE570B1
:100D500054C4648454FE7061786076817493C326B1
:100D600085D070B41453E57054C4648454FE704943
:100D7000793177817493C32785D070B4143BE570C3
:100D800054C4648454FE703178817493C32885D030
:100D900070B41425E57054C4648454FE701B7981CA
:100DA0007493C32985D070B4140FE57054C464845F
:100DB00054FE7005759961800675993F756E017ACC
:100DC000817493C32A85D070B41425E57054C4642B
:100DD0008454FE701B7B817493C32B85D070B41434
:100DE0000FE57054C4648454FE70057599628006E2
:100DF00075993F756E017C817493C32C85D070B456
:100E00001425E57054C4648454FE701B7D81749372
:100E1000C32D85D070B4140FE57054C4648454FE9F
:100E20007005759963800675993F756E017E8174B2
:100E300093C32E85D070B41425E57054C4648454D3
:100E4000FE701B7F817493C32F85D070B4140FE59F
:100E50007054C4648454FE70057599648006759955
:100E60003F756E017493C3248185D070F5E0B4148E
:100E70000FE57054C4648454FE700575996580064E
:100E800075993F756E017599327560887498C325A0
:100E90006085D070B4206BE57054C464C454FE7097
:100EA00061786076887498C32685D070B42053E545
:100EB0007054C464C454FE7049793177887498C3FF
:100EC0002785D070B4203BE57054C464C454FE70D0
:100ED0003178887498C32885D070B42025E5705483
:100EE000C464C454FE701B79887498C32985D0707B
:100EF000B4200FE57054C464C454FE700575996144
:100F0000800675993F756E017A887498C32A85D0DA
:100F100070B42025E57054C464C454FE701B7B88F3
:100F20007498C32B85D070B4200FE57054C464C48A
:100F300054FE7005759962800675993F756E017C47
:100F4000887498C32C85D070B42025E57054C4648F
:100F5000C454FE701B7D887498C32D85D070B42056
:100F60000FE57054C464C454FE700575996380061F
:100F700075993F756E017E887498C32E85D070B4C4
:100F80002025E57054C464C454FE701B7F88749897
:100F9000C32F85D070B4200FE57054C464C454FED0
:100FA0007005759964800675993F756E017498C3D4
:100FB000248885D070F5E0B4200FE57054C464C473
:100FC00054FE7005759965800675993F756E0175BB
:100FD000993375604374FBC3256085D070B43E6B54
:100FE000E57054C4648054FE70617860764374FB8D
:100FF000C32685D070B43E53E57054C4648054FE5B
:1010000070497931774374FBC32785D070B43E3B78
:10101000E57054C4648054FE7031784374FBC32877
:1010200085D070B43E25E57054C4648054FE701BB6
:10103000794374FBC32985D070B43E0FE57054C466
:10104000648054FE7005759961800675993F756ED0
:10105000017A4374FBC32A85D070B43E25E57054F1
:10106000C4648054FE701B7B4374FBC32B85D0701B
:10107000B43E0FE57054C4648054FE7005759962E7
:10108000800675993F756E017C4374FBC32C85D037
:1010900070B43E25E57054C4648054FE701B7D43DB
:1010A00074FBC32D85D070B43E0FE57054C46480CA
:1010B00054FE7005759963800675993F756E017EC3
:1010C0004374FBC32E85D070B43E25E57054C464D0
:1010D0008054FE701B7F4374FBC32F85D070B43ED9
:1010E0000FE57054C4648054FE70057599648006E1
:1010F00075993F756E0174FBC3244385D070F5E08C
:10110000B43E0FE57054C4648054FE700575996553
:10111000800675993F756E0175990D75990A7599D7
:101120004D7599307560517433C3356085D070B496
:10113000846BE57054C4640454FE70617860765129
:101140007433C33685D070B48453E57054C46404DA
:1011500054FE7049793177517433C33785D070B4F8
:10116000843BE57054C4640454FE70317851743388
:10117000C33885D070B48425E57054C4640454FE2B
:10118000701B79517433C33985D070B4840FE57006
:1011900054C4640454FE7005759961800675993FC6
:1011A000756E017A517433C33A85D070B48425E5E5
:1011B0007054C4640454FE701B7B517433C33B856C
:1011C000D070B4840FE57054C4640454FE70057587
:1011D0009962800675993F756E017C517433C33CEA
:1011E00085D070B48425E57054C4640454FE701B2B
:1011F0007D517433C33D85D070B4840FE57054C401
:10120000640454FE7005759963800675993F756E88
:10121000017E517433C33E85D070B48425E570548B
:10122000C4640454FE701B7F517433C33F85D07077
:10123000B4840FE57054C4640454FE700575996459
:10124000800675993F756E017433C3345185D07033
:10125000F5E0B4840FE57054C4640454FE70057561
:101260009965800675993F756E0175993175608134
:101270007493C3356085D070B4146BE57054C46446
:101280008454FE7061786076817493C33685D07023
:10129000B41453E57054C4648454FE7049793177B2
:1012A000817493C33785D070B4143BE57054C46423
:1012B0008454FE703178817493C33885D070B4142F
:1012C00025E57054C4648454FE701B79817493C303
:1012D0003985D070B4140FE57054C4648454FE7022
:1012E00005759961800675993F756E017A817493D1
:1012F000C33A85D070B41425E57054C4648454FE98
:10130000701B7B817493C33B85D070B4140FE57060
:1013100054C4648454FE7005759962800675993FC3
:10132000756E017C817493C33C85D070B41425E53F
:101330007054C4648454FE701B7D817493C33D85D6
:10134000D070B4140FE57054C4648454FE700575F5
:101350009963800675993F756E017E817493C33ED3
:1013600085D070B41425E57054C4648454FE701B99
:101370007F817493C33F85D070B4140FE57054C45B
:10138000648454FE7005759964800675993F756E86
:10139000017493C3348185D070F5E0B4140FE57007
:1013A00054C4648454FE7005759965800675993F30
:1013B000756E017599327560887498C3356085D0F3
:1013C00070B4206BE57054C464C454FE70617860DE
:1013D00076887498C33685D070B42053E57054C4B1
:1013E00064C454FE7049793177887498C33785D0C6
:1013F00070B4203BE57054C464C454FE70317888E6
:101400007498C33885D070B42025E57054C464C482
:1014100054FE701B79887498C33985D070B4200F3E
:10142000E57054C464C454FE7005759961800675F6
:10143000993F756E017A887498C33A85D070B4204C
:1014400025E57054C464C454FE701B7B887498C333
:101450003B85D070B4200FE57054C464C454FE7052
:1014600005759962800675993F756E017C88749840
:10147000C33C85D070B42025E57054C464C454FEC8
:10148000701B7D887498C33D85D070B4200FE570C3
:1014900054C464C454FE7005759963800675993F01
:1014A000756E017E887498C33E85D070B42025E5A2
:1014B0007054C464C454FE701B7F887498C33F8505
:1014C000D070B4200FE57054C464C454FE70057528
:1014D0009964800675993F756E017498C334888548
:1014E000D070F5E0B4200FE57054C464C454FE70AD
:1014F00005759965800675993F756E017599337507
:1015000060887498D3356085D070B4216BE57054D1
:10151000C464C554FE7061786076887498D336854B
:10152000D070B42153E57054C464C554FE70497939
:101530003177887498D33785D070B4213BE57054E7
:10154000C464C554FE703178887498D33885D070DF
:10155000B42125E57054C464C554FE701B798874A9
:1015600098D33985D070B4210FE57054C464C55444
:10157000FE7005759961800675993F756E017A88D0
:101580007498D33A85D070B42125E57054C464C5ED
:1015900054FE701B7B887498D33B85D070B4210FA8
:1015A000E57054C464C554FE700575996280067573
:1015B000993F756E017C887498D33C85D070B421B6
:1015C00025E57054C464C554FE701B7D887498D39F
:1015D0003D85D070B4210FE57054C464C554FE70CD
:1015E00005759963800675993F756E017E887498BC
:1015F000D33E85D070B42125E57054C464C554FE33
:10160000701B7F887498D33F85D070B4210FE5702C
:1016100054C464C554FE7005759964800675993F7D
:10162000756E017498D3348885D070F5E0B4210FBD
:10163000E57054C464C554FE7005759965800675DF
:10164000993F756E0175993475604374FBD33560AD
:1016500085D070B43F6BE57054C4648154FE7061F2
:101660007860764374FBD33685D070B43F53E57011
:1016700054C4648154FE70497931774374FBD33785
:1016800085D070B43F3BE57054C4648154FE703122
:10169000784374FBD33885D070B43F25E57054C4CB
:1016A000648154FE701B794374FBD33985D070B4C8
:1016B0003F0FE57054C4648154FE700575996180D4
:1016C0000675993F756E017A4374FBD33A85D070E5
:1016D000B43F25E57054C4648154FE701B7B437491
:1016E000FBD33B85D070B43F0FE57054C464815484
:1016F000FE7005759962800675993F756E017C4391
:1017000074FBD33C85D070B43F25E57054C464812C
:1017100054FE701B7D4374FBD33D85D070B43F0FE6
:10172000E57054C4648154FE700575996380067534
:10173000993F756E017E4374FBD33E85D070B43FF4
:1017400025E57054C4648154FE701B7F4374FBD341
:101750003F85D070B43F0FE57054C4648154FE706F
:1017600005759964800675993F756E0174FBD334D5
:101770004385D070F5E0B43F0FE57054C4648154E4
:10178000FE7005759965800675993F756E017599AE
:101790000D75990A75994E7599307560707473C39B
:1017A000956085D070B4036BE57054C4640054FE3A
:1017B0007061786076707473C39685D070B403538B
:1017C000E57054C4640054FE7049793177707473C5
:1017D000C39785D070B4033BE57054C4640054FED5
:1017E000703178707473C39885D070B40325E57038
:1017F00054C4640054FE701B79707473C39985D00F
:1018000070B4030FE57054C4640054FE70057599FC
:1018100061800675993F756E017A707473C39A85FD
:10182000D070B40325E57054C4640054FE701B7B73
:10183000707473C39B85D070B4030FE57054C46497
:101840000054FE7005759962800675993F756E01AA
:101850007C707473C39C85D070B40325E57054C448
:10186000640054FE701B7D707473C39D85D070B48A
:10187000030FE57054C4640054FE700575996380CD
:101880000675993F756E017E707473C39E85D07026
:10189000B40325E57054C4640054FE701B7F70745B
:1018A00073C39F85D070B4030FE57054C4640054B3
:1018B000FE7005759964800675993F756E017473A5
:1018C000C3947085D070F5E0B4030FE57054C46420
:1018D0000054FE7005759965800675993F756E0117
:1018E0007599317560707473D3956085D070B4024A
:1018F0006BE57054C4640154FE7061786076707456
:1019000073D39685D070B40253E57054C464015407
:10191000FE7049793177707473D39785D070B402B3
:101920003BE57054C4640154FE703178707473D315
:101930009885D070B40225E57054C4640154FE70DB
:101940001B79707473D39985D070B4020FE570540D
:10195000C4640154FE7005759961800675993F75E0
:101960006E017A707473D39A85D070B40225E570D5
:1019700054C4640154FE701B7B707473D39B85D078
:1019800070B4020FE57054C4640154FE700575997B
:1019900062800675993F756E017C707473D39C8567
:1019A000D070B40225E57054C4640154FE701B7DF0
:1019B000707473D39D85D070B4020FE57054C46405
:1019C0000154FE7005759963800675993F756E0127
:1019D0007E707473D39E85D070B40225E57054C4B4
:1019E000640154FE701B7F707473D39F85D070B4F4
:1019F000020FE57054C4640154FE7005759964804B
:101A00000675993F756E017473D3947085D070F527
:101A1000E0B4020FE57054C4640154FE700575997A
:101A200065800675993F756E017599327560C3744E
:101A3000C5C3956085D070B4026BE57054C4640072
:101A400054FE7061786076C374C5C39685D070B457
:101A50000253E57054C4640054FE7049793177C371
:101A600074C5C39785D070B4023BE57054C464005C
:101A700054FE703178C374C5C39885D070B4022504
:101A8000E57054C4640054FE701B79C374C5C399D7
:101A900085D070B4020FE57054C4640054FE700524
:101AA000759961800675993F756E017AC374C5C3D7
:101AB0009A85D070B40225E57054C4640054FE7059
:101AC0001B7BC374C5C39B85D070B4020FE57054F3
:101AD000C4640054FE7005759962800675993F755F
:101AE0006E017CC374C5C39C85D070B40225E570BB
:101AF00054C4640054FE701B7DC374C5C39D85D05F
:101B000070B4020FE57054C4640054FE70057599FA
:101B100063800675993F756E017EC374C5C39E854B
:101B2000D070B40225E57054C4640054FE701B7F6D
:101B3000C374C5C39F85D070B4020FE57054C464EC
:101B40000054FE7005759964800675993F756E01A5
:101B500074C5C394C385D070F5E0B4020FE570542A
:101B6000C4640054FE7005759965800675993F75CB
:101B70006E017599337560C374C5D3956085D07057
:101B8000B4016BE57054C4640154FE7061786076F2
:101B9000C374C5D39685D070B40153E57054C46442
:101BA0000154FE7049793177C374C5D39785D070DD
:101BB000B4013BE57054C4640154FE703178C374C1
:101BC000C5D39885D070B40125E57054C464015420
:101BD000FE701B79C374C5D39985D070B4010FE52D
:101BE0007054C4640154FE7005759961800675993E
:101BF0003F756E017AC374C5D39A85D070B4012540
:101C0000E57054C4640154FE701B7BC374C5D39B40
:101C100085D070B4010FE57054C4640154FE7005A2
:101C2000759962800675993F756E017CC374C5D342
:101C30009C85D070B40125E57054C4640154FE70D5
:101C40001B7DC374C5D39D85D070B4010FE570545E
:101C5000C4640154FE7005759963800675993F75DB
:101C60006E017EC374C5D39E85D070B40125E57026
:101C700054C4640154FE701B7FC374C5D39F85D0C8
:101C800070B4010FE57054C4640154FE7005759979
:101C900064800675993F756E0174C5D394C385D071
:101CA00070F5E0B4010FE57054C4640154FE700592
:101CB000759965800675993F756E0175990D7599D1
:101CC0000A75994F75819F75601278A07600C06083
:101CD000E6B4120AE581B4A005759961800675998C
:101CE0003F756E01756100E4D0617961E7B4120A55
:101CF000E581B49F05759962800675993F756E01FF
:101D000075819F75F04278A07600C0F0E6B4420A73
:101D1000E581B4A005759963800675993F756E01DC
:101D200075F000E4D0F0E5F0B4420AE581B49F0517
:101D3000759964800675993F756E0175990D759951
:101D40000A759950758365758243900123E583B4C4
:101D5000010AE582B42305759961800675993F757E
:101D60006E019000137455F0A3F4F0900013E0B4EA
:101D7000550AA3E0B4AA05759962800675993F7566
:101D80006E01747990000078137914E2B45509E378
:101D9000B4AA05759963800675993F756E017599AA
:101DA0000D75990A759951740324028380040713F1
:101DB0001921B42105759961800675993F756E01E9
:101DC000901DAE740093B40717740193B41311748B
:101DD0000293B4190B740393B421057599628006BC
:101DE00075993F756E0175990D75990A75995275BA
:101DF000814F755000755100755200755300D10226
:101E00008014E581B4510FE550B4000AE551B41EC9
:101E100005759961800675993F756E0112800C8079
:101E20000600759962800675993F756E01907FCDA9
:101E3000743373021E450000740074007400740053
:101E4000759963800675993F756E01028006021EC2
:101E50005A00000000759964800675993F756E01FF
:101E600075990D75990A75995375814F754F1E7542
:101E70004E7D754D1E754C872280167400E581B429
:101E80004D0F22800C7400E581B44B05759961807B
:101E90000675993F756E0175814F754F1E754EAB76
:101EA000754D1E754CB52280E87400E581B44D0F68
:101EB0002280DE7400E581B44B0575996280067559
:101EC000993F756E0175990D75990A75995475F05C
:101ED000077413E5F0B40737901F1778007909E805
:101EE0000893F5F0E8089384F560E808937015E529
:101EF000D05404701AE80893B56014E80893B5F05C
:101F00000E021F06080819E970D5759961800675DB
:101F1000993F756E01802D0713000205071100021D
:101F200003070D0001060D11000104110D00000D45
:101F3000000D04000D808700010701FF00FF000273
:101F4000FF007F01901F8578007909E80893F5F07C
:101F5000E80893A4F560E8936008E5D05404601D98
:101F60008006E5D054047015E80893B5F00FE80832
:101F700093B5600919E970D3759962800675993F28
:101F8000756E0180240713008507110077070D0087
:101F90005B0D1100DD110D00DD000D000080874399
:101FA0008001FF00FF02FF01FE75990D75990A750A
:101FB000995575D0007401121FD475D00874091298
:101FC0001FD475D0107411121FD475D01874191243
:101FD0001FD4801EF879127F34E6B4121B7456F6B3
:101FE000B95615E82406F8E6B4340D7478F6B478DA
:101FF000072200759961800675993F756E01759984
:102000000D75990AE56E701A75990D75990A75998D
:102010005075994175995375995375990D75990A2C
:10202000801A75990D75990A759946759941759932
:0E2030004975994C75990D75990A8000013C0F
:10800000021E38021E45021E53021E5AE581B45359
:108010000DE552B41F08E553B41E03021E21021ED3
:018020002738
:00000001FF
