:03000000020030CB
:10003000756E00759941759961800675993F756E69
:10004000017599628005759963801875E05AB45AF4
:10005000F5B47A0675993F756E01B47AE975993FE2
:10006000756E01756002D5600675993F756E01D594
:100070006005759964800675993F756E017560A578
:10008000E560B4A505759965800675993F756E01A3
:1000900075990D75990A7599427881E8B4812F791F
:1000A00043E9B443297A27EAB427237BC2EBB4C2DD
:1000B0001D7CF1ECB4F1177D04EDB404117E92EED9
:1000C000B4920B7F1FEFB41F057599618006759977
:1000D0003F756E0175D080400675993F756E015071
:1000E0000775D0004002500675993F756E017599ED
:1000F000627892B8910875993F756E017891B891C0
:10010000FB79A3B9A20875993F756E0179A2B9A2CE
:10011000FB7AB4BAB30875993F756E017AB3BAB376
:10012000FB7BC5BBC40875993F756E017BC4BBC41E
:10013000FB7CD6BCD50875993F756E017CD5BCD5C6
:10014000FB7DE7BDE60875993F756E017DE6BDE66E
:10015000FB7EF8BEF70875993F756E017EF7BEF716
:10016000FB7F09BF080875993F756E017F08BF08BE
:10017000FB75D0007834B83500500FB83400400A11
:10018000B833004005759963800675993F756E0117
:1001900075D080C3400BD35008B340057599648077
:1001A0000675993F756E017860756012E560B4124E
:1001B0001D76F5E560B4F5167960756012E560B4FA
:1001C000120C77F5E560B4F50575996580067599AB
:1001D0003F756E0178307613B6120875993F756ECB
:1001E000017612B612FB79307735B7340875993F2E
:1001F000756E017734B734FB7830C37634B635008A
:10020000500FB63400400AB6330040057599668039
:100210000675993F756E017560C07531C17532C242
:10022000C374C1B5311D401BB5320675993F756E5B
:10023000015010B56006759924756E0140057599D9
:1002400067800675993F756E0175990D75990A75E8
:100250009943752F80800E307F1C307E1175993F39
:10026000756E018011207FEF759921756E01207EDA
:1002700005759961800675993F756E0175E079B4D1
:10028000790A745AB45A05759962800675993F7552
:100290006E017480800E601B7400601075993F754C
:1002A0006E01800F70F0759921756E01700575995A
:1002B00063800675993F756E01752F80207F0280DF
:1002C0000FC27F207F0AB27F307F05759964800658
:1002D00075993F756E01752E08C38273401FD382D6
:1002E00073501AB0725016727350127272500EC35D
:1002F00072735009A0725005759965800675993F13
:10030000756E01752E08C3A2735015A2724011C3F9
:10031000927120710BD392713071057599668006C8
:1003200075993F756E01752E00D273A273500BD272
:1003300072A2725005759967800675993F756E01B6
:10034000752E088009A273400F10720C800510737F
:10035000F48005759968800675993F756E01752F53
:100360000075F080800E30F71C30F61175993F75DE
:100370006E01801120F7EF759921756E0120F60549
:10038000759969800675993F756E0175F08020F743
:1003900002800FC2F720F70AB2F730F70575996AA5
:1003A000800675993F756E0175F008C382F3401F92
:1003B000D382F3501AB0F2501672F3501272F25008
:1003C0000EC372F35009A0F2500575996B80067543
:1003D000993F756E0175F008C3A2F35015A2F24063
:1003E00011C392F120F10BD392F130F10575996CA4
:1003F000800675993F756E01752E00D2F3A2F350F9
:100400000BD2F2A2F2500575996D800675993F7571
:100410006E0175F0088009A2F3400F10F20C800500
:1004200010F3F4800575996E800675993F756E011D
:1004300075990D75990A75994474856444600964C9
:10044000C17005759961800675993F756E01748557
:1004500000C333F560640A7016E560336415700FED
:10046000748500C333500833400575996280067562
:10047000993F756E017485C313F560006442701571
:10048000E5601364A1700E7485C313500813400512
:10049000759963800675993F756E017485C323F560
:1004A00060640B7028E560D323641670207485C3E4
:1004B00003F56064C27016E560036461700F74FF39
:1004C000C323400903034005759964800675993F6D
:1004D000756E0175990D75990A759945748004B406
:1004E000810E74FFC3044008B4000575996180064D
:1004F00075993F756E017866788008B8817778FFC6
:10050000C3084071B8006E798009B9816879FFC36A
:10051000094062B9005F7A800ABA81597AFFC30A3A
:100520004053BA00507B800BBB814A7BFFC30B401A
:1005300044BB00417C800CBC813B7CFFC30C40353C
:10054000BC00327D800DBD812C7DFFC30D4026BDDA
:1005500000237E800EBE811D7EFFC30E4017BE00AD
:10056000147F800FBF810E7FFFC30F4008BF0005BF
:10057000759962800675993F756E0178607931765C
:100580008006B6811D76FFC3064017B6001477803B
:1005900007B7810E77FFC3074008B7000575996359
:1005A000800675993F756E01756034E560B4340559
:1005B000759964800675993F756E017539800539A6
:1005C000E539B481127539FFC30539400AE539B4FC
:1005D0000005759965800675993F756E01748004F4
:1005E000B4810E74FFC3044008B400057599668099
:1005F0000675993F756E017866788008B8817778BE
:10060000FFC3084071B8006E798009B9816879FF2D
:10061000C3094062B9005F7A800ABA81597AFFC380
:100620000A4053BA00507B800BBB814A7BFFC30B4F
:100630004044BB00417C800CBC813B7CFFC30C4030
:1006400035BC00327D800DBD812C7DFFC30D402661
:10065000BD00237E800EBE811D7EFFC30E4017BEEF
:1006600000147F800FBF810E7FFFC30F4008BF00C3
:1006700005759967800675993F756E0178607931C7
:10068000768006B6811D76FFC3064017B600147744
:100690008007B7810E77FFC3074008B7000575993B
:1006A00068800675993F756E01756034E560B434F5
:1006B00005759969800675993F756E0175990D7577
:1006C000990A75994678918839E539B491447992B7
:1006D0008939E539B4923B7A938A39E539B4933252
:1006E0007B948B39E539B494297C958C39E539B400
:1006F00095207D968D39E539B496177E978E39E52C
:1007000039B4970E7F988F39E539B498057599619A
:10071000800675993F756E0176918639E539B491F9
:100720000E77928739E539B492057599628006751E
:10073000993F756E01753191853139E539B491056F
:10074000759963800675993F756E01753991A83961
:10075000B8913D753992A939B99235753993AA394D
:10076000BA932D753994AB39BB9425753995AC394D
:10077000BC951D753996AD39BD9615753997AE394D
:10078000BE970D753998AF39BF9805759964800685
:1007900075993F756E0178607931753991A639B6D2
:1007A000910D753992A739B79205759965800675CF
:1007B000993F756E017491F8B8912F7492F9B992BE
:1007C000297493FABA93237494FBBB941D7495FD1A
:1007D000BD95177496FDBD96117497FEBE970B7468
:1007E00098FFBF9805759966800675993F756E01EB
:1007F000786079317491F6B6910B7492F7B79205DF
:10080000759967800675993F756E017560797800F6
:100810007434F560A860B8340575996880067599D8
:100820003F756E01740079317531567860756034AA
:10083000E6B43409E7B45605759969800675993FA1
:10084000756E0175990D75990A7599477455E4701F
:10085000117455F4B4AA0B7497C4B47905759961F1
:10086000800675993F756E017583127582FDA3E54B
:1008700083B41220E582B4FE1BA3E583B41215E510
:1008800082B4FF10A3E583B4130AE582B4000575B2
:100890009962800675993F756E017434751357C55A
:1008A00013B4570AE513B434057599638006759936
:1008B0003F756E0174917529787929C7B4780AE576
:1008C00029B49105759964800675993F756E017418
:1008D000437EA2CEB4A209EEB443057599658006A5
:1008E00075993F756E0175990D75990A75994875D9
:1008F000603C74995560B418297860763C749956B8
:10090000B4181F7931773C749957B41815783C7432
:100910009958B4180D793C749959B41805759961B2
:10092000800675993F756E017A3C74995AB4180D1A
:100930007B3C74995BB41805759962800675993F84
:10094000756E017C3C74995CB4180D7D3C74995DA6
:10095000B41805759963800675993F756E017E3CE4
:1009600074995EB4180D7F3C74995FB4180575993D
:1009700064800675993F756E017499543CF5E0B436
:100980001805759965800675993F756E01756099B2
:1009900053603C8560E0B4180575996680067599CA
:1009A0003F756E0175603C74995260E560B418053E
:1009B000759967800675993F756E0175990D7599E2
:1009C0000A75994975605174924560B4D32978606D
:1009D0007651749246B4D31F79317751749247B4EB
:1009E000D3157851749248B4D30D7951749249B4A7
:1009F000D305759961800675993F756E017A5174BA
:100A0000924AB4D30D7B5174924BB4D3057599625D
:100A1000800675993F756E017C5174924CB4D30D6C
:100A20007D5174924DB4D305759963800675993FD5
:100A3000756E017E5174924EB4D30D7F5174924FF6
:100A4000B4D305759964800675993F756E017492EB
:100A50004451F5E0B4D305759965800675993F75E5
:100A60006E017560924360518560E0B4D30575995D
:100A700066800675993F756E01756051749242608B
:100A8000E560B4D305759967800675993F756E0169
:100A900075990D75990A75994A7560517433656039
:100AA000B4622978607651743366B4621F79317705
:100AB00051743367B462157851743368B4620D7938
:100AC00051743369B46205759961800675993F75F3
:100AD0006E017A5174336AB4620D7B5174336BB416
:100AE0006205759962800675993F756E017C517437
:100AF000336CB4620D7D5174336DB46205759963C6
:100B0000800675993F756E017E5174336EB4620D27
:100B10007F5174336FB46205759964800675993F8F
:100B2000756E0174336451F5E0B4620575996580A2
:100B30000675993F756E017560336360518560E09D
:100B4000B46205759966800675993F756E0175608A
:100B50005174336260E560B462057599678006750B
:100B6000993F756E0175990D75990A75994B756068
:100B700003740414600BD560FAB4010575996180A3
:100B80000675993F756E017803740414605ED8FB96
:100B9000B4015979037404146052D9FBB4014D7A3D
:100BA000037404146046DAFBB401417B037404143B
:100BB000603ADBFBB401357C03740414602EDCFB6B
:100BC000B401297D037404146022DDFBB4011D7E91
:100BD000037404146016DEFBB401117F0374041463
:100BE000600ADFFBB40105759962800675993F754F
:100BF0006E0175990D75990A75994C7599307560E6
:100C0000517433C3256085D070B4846BE57054C4CF
:100C1000640454FE7061786076517433C32685D0C5
:100C200070B48453E57054C4640454FE704979313F
:100C300077517433C32785D070B4843BE57054C4B6
:100C4000640454FE703178517433C32885D070B475
:100C50008425E57054C4640454FE701B79517433C8
:100C6000C32985D070B4840FE57054C4640454FE65
:100C70007005759961800675993F756E017A51749A
:100C800033C32A85D070B48425E57054C4640454F9
:100C9000FE701B7B517433C32B85D070B4840FE579
:100CA0007054C4640454FE70057599628006759989
:100CB0003F756E017C517433C32C85D070B484258C
:100CC000E57054C4640454FE701B7D517433C32D0D
:100CD00085D070B4840FE57054C4640454FE70056C
:100CE000759963800675993F756E017E517433C3A3
:100CF0002E85D070B48425E57054C4640454FE700D
:100D00001B7F517433C32F85D070B4840FE57054AA
:100D1000C4640454FE7005759964800675993F7526
:100D20006E017433C3245185D070F5E0B4840FE5AF
:100D30007054C4640454FE700575996580067599F5
:100D40003F756E017599317560817493C325608517
:100D5000D070B4146BE57054C4648454FE70617830
:100D60006076817493C32685D070B41453E57054B3
:100D7000C4648454FE7049793177817493C32785A4
:100D8000D070B4143BE57054C4648454FE70317860
:100D9000817493C32885D070B41425E57054C4645D
:100DA0008454FE701B79817493C32985D070B41468
:100DB0000FE57054C4648454FE7005759961800613
:100DC00075993F756E017A817493C32A85D070B48A
:100DD0001425E57054C4648454FE701B7B817493A5
:100DE000C32B85D070B4140FE57054C4648454FED2
:100DF0007005759962800675993F756E017C8174E6
:100E000093C32C85D070B41425E57054C464845405
:100E1000FE701B7D817493C32D85D070B4140FE5D3
:100E20007054C4648454FE70057599638006759986
:100E30003F756E017E817493C32E85D070B41425E6
:100E4000E57054C4648454FE701B7F817493C32F77
:100E500085D070B4140FE57054C4648454FE7005DA
:100E6000759964800675993F756E017493C32481EA
:100E700085D070F5E0B4140FE57054C4648454FE5A
:100E80007005759965800675993F756E0175993283
:100E90007560887498C3256085D070B4206BE57048
:100EA00054C464C454FE7061786076887498C32614
:100EB00085D070B42053E57054C464C454FE7049A6
:100EC000793177887498C32785D070B4203BE5705A
:100ED00054C464C454FE703178887498C32885D093
:100EE00070B42025E57054C464C454FE701B798826
:100EF0007498C32985D070B4200FE57054C464C4BD
:100F000054FE7005759961800675993F756E017A7A
:100F1000887498C32A85D070B42025E57054C464C1
:100F2000C454FE701B7B887498C32B85D070B4208A
:100F30000FE57054C464C454FE7005759962800650
:100F400075993F756E017C887498C32C85D070B4F8
:100F50002025E57054C464C454FE701B7D887498C9
:100F6000C32D85D070B4200FE57054C464C454FE02
:100F70007005759963800675993F756E017E88745A
:100F800098C32E85D070B42025E57054C464C45431
:100F9000FE701B7F887498C32F85D070B4200FE536
:100FA0007054C464C454FE700575996480067599C4
:100FB0003F756E017498C3248885D070F5E0B42025
:100FC0000FE57054C464C454FE70057599658006BD
:100FD00075993F756E0175993375604374FBC32530
:100FE0006085D070B43E6BE57054C4648054FE706C
:100FF000617860764374FBC32685D070B43E53E5B8
:101000007054C4648054FE70497931774374FBC3D3
:101010002785D070B43E3BE57054C4648054FE70A4
:1010200031784374FBC32885D070B43E25E57054F5
:10103000C4648054FE701B794374FBC32985D0704F
:10104000B43E0FE57054C4648054FE700575996118
:10105000800675993F756E017A4374FBC32A85D06B
:1010600070B43E25E57054C4648054FE701B7B430D
:1010700074FBC32B85D070B43E0FE57054C46480FC
:1010800054FE7005759962800675993F756E017CF6
:101090004374FBC32C85D070B43E25E57054C46402
:1010A0008054FE701B7D4374FBC32D85D070B43E0D
:1010B0000FE57054C4648054FE7005759963800612
:1010C00075993F756E017E4374FBC32E85D070B455
:1010D0003E25E57054C4648054FE701B7F4374FB4E
:1010E000C32F85D070B43E0FE57054C4648054FEA5
:1010F0007005759964800675993F756E0174FBC320
:10110000244385D070F5E0B43E0FE57054C464808C
:1011100054FE7005759965800675993F756E017569
:10112000990D75990A75994D75993075605174339B
:10113000C3356085D070B4846BE57054C4640454C6
:10114000FE7061786076517433C33685D070B48494
:1011500053E57054C4640454FE7049793177517476
:1011600033C33785D070B4843BE57054C4640454F1
:10117000FE703178517433C33885D070B48425E55E
:101180007054C4640454FE701B79517433C33985A0
:10119000D070B4840FE57054C4640454FE700575B7
:1011A0009961800675993F756E017A517433C33A1F
:1011B00085D070B48425E57054C4640454FE701B5B
:1011C0007B517433C33B85D070B4840FE57054C435
:1011D000640454FE7005759962800675993F756EBA
:1011E000017C517433C33C85D070B48425E57054C0
:1011F000C4640454FE701B7D517433C33D85D070AC
:10120000B4840FE57054C4640454FE70057599638A
:10121000800675993F756E017E517433C33E85D04B
:1012200070B48425E57054C4640454FE701B7F516F
:101230007433C33F85D070B4840FE57054C4640424
:1012400054FE7005759964800675993F756E01743A
:1012500033C3345185D070F5E0B4840FE57054C4C5
:10126000640454FE7005759965800675993F756E26
:10127000017599317560817493C3356085D070B400
:10128000146BE57054C4648454FE70617860768198
:101290007493C33685D070B41453E57054C4648419
:1012A00054FE7049793177817493C33785D070B417
:1012B000143BE57054C4648454FE70317881749397
:1012C000C33885D070B41425E57054C4648454FECA
:1012D000701B79817493C33985D070B4140FE57095
:1012E00054C4648454FE7005759961800675993FF5
:1012F000756E017A817493C33A85D070B41425E574
:101300007054C4648454FE701B7B817493C33B850A
:10131000D070B4140FE57054C4648454FE70057525
:101320009962800675993F756E017C817493C33C08
:1013300085D070B41425E57054C4648454FE701BC9
:101340007D817493C33D85D070B4140FE57054C48F
:10135000648454FE7005759963800675993F756EB7
:10136000017E817493C33E85D070B41425E570541A
:10137000C4648454FE701B7F817493C33F85D07016
:10138000B4140FE57054C4648454FE7005759964F8
:10139000800675993F756E017493C3348185D07052
:1013A000F5E0B4140FE57054C4648454FE70057500
:1013B0009965800675993F756E01759932756088DB
:1013C0007498C3356085D070B4206BE57054C464E4
:1013D000C454FE7061786076887498C33685D07086
:1013E000B42053E57054C464C454FE704979317715
:1013F000887498C33785D070B4203BE57054C464BA
:10140000C454FE703178887498C33885D070B42085
:1014100025E57054C464C454FE701B79887498C365
:101420003985D070B4200FE57054C464C454FE7084
:1014300005759961800675993F756E017A88749873
:10144000C33A85D070B42025E57054C464C454FEFA
:10145000701B7B887498C33B85D070B4200FE570F7
:1014600054C464C454FE7005759962800675993F32
:10147000756E017C887498C33C85D070B42025E5D6
:101480007054C464C454FE701B7D887498C33D8539
:10149000D070B4200FE57054C464C454FE70057558
:1014A0009963800675993F756E017E887498C33E76
:1014B00085D070B42025E57054C464C454FE701BFC
:1014C0007F887498C33F85D070B4200FE57054C4F2
:1014D00064C454FE7005759964800675993F756EF5
:1014E000017498C3348885D070F5E0B4200FE5709E
:1014F00054C464C454FE7005759965800675993F9F
:10150000756E017599337560887498D3356085D090
:1015100070B4216BE57054C464C554FE706178608A
:1015200076887498D33685D070B42153E57054C44E
:1015300064C554FE7049793177887498D33785D063
:1015400070B4213BE57054C464C554FE7031788892
:101550007498D33885D070B42125E57054C464C51F
:1015600054FE701B79887498D33985D070B4210FDC
:10157000E57054C464C554FE7005759961800675A4
:10158000993F756E017A887498D33A85D070B421EA
:1015900025E57054C464C554FE701B7B887498D3D1
:1015A0003B85D070B4210FE57054C464C554FE70FF
:1015B00005759962800675993F756E017C887498EF
:1015C000D33C85D070B42125E57054C464C554FE65
:1015D000701B7D887498D33D85D070B4210FE57061
:1015E00054C464C554FE7005759963800675993FAF
:1015F000756E017E887498D33E85D070B42125E540
:101600007054C464C554FE701B7F887498D33F85A2
:10161000D070B4210FE57054C464C554FE700575D4
:101620009964800675993F756E017498D3348885E6
:10163000D070F5E0B4210FE57054C464C554FE7059
:1016400005759965800675993F756E0175993475B4
:10165000604374FBD3356085D070B43F6BE5705444
:10166000C4648154FE70617860764374FBD3368520
:10167000D070B43F53E57054C4648154FE7049790E
:1016800031774374FBD33785D070B43F3BE570545A
:10169000C4648154FE7031784374FBD33885D070B4
:1016A000B43F25E57054C4648154FE701B794374C3
:1016B000FBD33985D070B43F0FE57054C4648154B6
:1016C000FE7005759961800675993F756E017A43C4
:1016D00074FBD33A85D070B43F25E57054C464815F
:1016E00054FE701B7B4374FBD33B85D070B43F0F1B
:1016F000E57054C4648154FE700575996280067566
:10170000993F756E017C4374FBD33C85D070B43F28
:1017100025E57054C4648154FE701B7D4374FBD373
:101720003D85D070B43F0FE57054C4648154FE70A1
:1017300005759963800675993F756E017E4374FB4C
:10174000D33E85D070B43F25E57054C4648154FE07
:10175000701B7F4374FBD33F85D070B43F0FE5709F
:1017600054C4648154FE7005759964800675993F70
:10177000756E0174FBD3344385D070F5E0B43F0F30
:10178000E57054C4648154FE7005759965800675D2
:10179000993F756E0175990D75990A75994E7599F0
:1017A000307560707473C3956085D070B4036BE559
:1017B0007054C4640054FE7061786076707473C3B2
:1017C0009685D070B40353E57054C4640054FE7021
:1017D00049793177707473C39785D070B4033BE552
:1017E0007054C4640054FE703178707473C398856B
:1017F000D070B40325E57054C4640054FE701B79A6
:10180000707473C39985D070B4030FE57054C464C9
:101810000054FE7005759961800675993F756E01DB
:101820007A707473C39A85D070B40325E57054C47C
:10183000640054FE701B7B707473C39B85D070B4BE
:10184000030FE57054C4640054FE700575996280FE
:101850000675993F756E017C707473C39C85D0705A
:10186000B40325E57054C4640054FE701B7D70748D
:1018700073C39D85D070B4030FE57054C4640054E5
:10188000FE7005759963800675993F756E017E70CF
:101890007473C39E85D070B40325E57054C464008E
:1018A00054FE701B7F707473C39F85D070B4030F98
:1018B000E57054C4640054FE700575996480067523
:1018C000993F756E017473C3947085D070F5E0B460
:1018D000030FE57054C4640054FE7005759965806B
:1018E0000675993F756E017599317560707473D383
:1018F000956085D070B4026BE57054C4640154FEE9
:101900007061786076707473D39685D070B402532A
:10191000E57054C4640154FE704979317770747372
:10192000D39785D070B4023BE57054C4640154FE73
:10193000703178707473D39885D070B40225E570D7
:1019400054C4640154FE701B79707473D39985D0AC
:1019500070B4020FE57054C4640154FE70057599AB
:1019600061800675993F756E017A707473D39A859C
:10197000D070B40225E57054C4640154FE701B7B22
:10198000707473D39B85D070B4020FE57054C46437
:101990000154FE7005759962800675993F756E0158
:1019A0007C707473D39C85D070B40225E57054C4E8
:1019B000640154FE701B7D707473D39D85D070B428
:1019C000020FE57054C4640154FE7005759963807C
:1019D0000675993F756E017E707473D39E85D070C5
:1019E000B40225E57054C4640154FE701B7F70740A
:1019F00073D39F85D070B4020FE57054C464015452
:101A0000FE7005759964800675993F756E01747353
:101A1000D3947085D070F5E0B4020FE57054C464BF
:101A20000154FE7005759965800675993F756E01C4
:101A30007599327560C374C5C3956085D070B40262
:101A40006BE57054C4640054FE7061786076C374B2
:101A5000C5C39685D070B40253E57054C464005475
:101A6000FE7049793177C374C5C39785D070B402CD
:101A70003BE57054C4640054FE703178C374C5C330
:101A80009885D070B40225E57054C4640054FE708B
:101A90001B79C374C5C39985D070B4020FE5705427
:101AA000C4640054FE7005759961800675993F7590
:101AB0006E017AC374C5C39A85D070B40225E570EF
:101AC00054C4640054FE701B7BC374C5C39B85D093
:101AD00070B4020FE57054C4640054FE700575992B
:101AE00062800675993F756E017CC374C5C39C8581
:101AF000D070B40225E57054C4640054FE701B7DA0
:101B0000C374C5C39D85D070B4020FE57054C4641E
:101B10000054FE7005759963800675993F756E01D6
:101B20007EC374C5C39E85D070B40225E57054C4CD
:101B3000640054FE701B7FC374C5C39F85D070B40E
:101B4000020FE57054C4640054FE700575996480FA
:101B50000675993F756E0174C5C394C385D070F541
:101B6000E0B4020FE57054C4640054FE700575992A
:101B700065800675993F756E017599337560C374FC
:101B8000C5D3956085D070B4016BE57054C4640111
:101B900054FE7061786076C374C5D39685D070B4F6
:101BA0000153E57054C4640154FE7049793177C320
:101BB00074C5D39785D070B4013BE57054C46401FB
:101BC00054FE703178C374C5D39885D070B40125A4
:101BD000E57054C4640154FE701B79C374C5D39975
:101BE00085D070B4010FE57054C4640154FE7005D3
:101BF000759961800675993F756E017AC374C5D376
:101C00009A85D070B40125E57054C4640154FE7007
:101C10001B7BC374C5D39B85D070B4010FE5705492
:101C2000C4640154FE7005759962800675993F750C
:101C30006E017CC374C5D39C85D070B40125E5705A
:101C400054C4640154FE701B7DC374C5D39D85D0FC
:101C500070B4010FE57054C4640154FE70057599A9
:101C600063800675993F756E017EC374C5D39E85EA
:101C7000D070B40125E57054C4640154FE701B7F1C
:101C8000C374C5D39F85D070B4010FE57054C4648C
:101C90000154FE7005759964800675993F756E0153
:101CA00074C5D394C385D070F5E0B4010FE57054CA
:101CB000C4640154FE7005759965800675993F7579
:101CC0006E0175990D75990A75994F75819F7560AB
:101CD0001278A07600C060E6B4120AE581B4A005CF
:101CE000759961800675993F756E01756100E4D044
:101CF000617961E7B4120AE581B49F057599628044
:101D00000675993F756E0175819F75F04278A076D2
:101D100000C0F0E6B4420AE581B4A005759963807D
:101D20000675993F756E0175F000E4D0F0E5F0B4EA
:101D3000420AE581B49F05759964800675993F75DF
:101D40006E0175990D75990A75995075836575823F
:101D500043900123E583B4010AE582B42305759914
:101D600061800675993F756E019000137455F0A35C
:101D7000F4F0900013E0B4550AA3E0B4AA057599F5
:101D800062800675993F756E017479900000781332
:101D90007914E2B45509E3B4AA0575996380067510
:101DA000993F756E0175990D75990A75995174036E
:101DB000240283800407131921B4210575996180D9
:101DC0000675993F756E01901DB5740093B40717A1
:101DD000740193B41311740293B4190B740393B484
:101DE0002105759962800675993F756E0175990D8B
:101DF00075990A75995275814F7550007551007526
:101E00005200755300D1098014E581B4510FE5509B
:101E1000B4070AE551B41E05759961800675993FAE
:101E2000756E0112800C80060075996280067599A6
:101E30003F756E01907FCD743373021E4C000074A9
:101E400000740074007400759963800675993F757D
:101E50006E01028006021E61000000007599648018
:101E60000675993F756E0175990D75990A759953A7
:101E700075814F754F1E754E84754D1E754C8E22A3
:101E800080167400E581B44D0F22800C7400E5814A
:101E9000B44B05759961800675993F756E01758122
:101EA0004F754F1E754EB2754D1E754CBC2280E8A5
:101EB0007400E581B44D0F2280DE7400E581B44BDF
:101EC00005759962800675993F756E0175990D7556
:101ED000990A75995475F0077413E5F0B4073790B3
:101EE0001F1E78007909E80893F5F0E8089384F557
:101EF00060E808937015E5D05404701AE80893B5AB
:101F00006014E80893B5F00E021F0D080819E97077
:101F1000D5759961800675993F756E01802D0713FF
:101F20000002050711000203070D0001060D110054
:101F30000104110D00000D000D04000D808700014B
:101F40000701FF00FF0002FF007F01901F8C780057
:101F50007909E80893F5F0E80893A4F560E8936040
:101F600008E5D05404601D8006E5D054047015E8DF
:101F70000893B5F00FE80893B5600919E970D375B7
:101F80009962800675993F756E018024071300855C
:101F900007110077070D005B0D1100DD110D00DD4D
:101FA000000D00008087438001FF00FF02FF01FE5B
:101FB00075990D75990A75995575D0007401121FA0
:101FC000DB75D0087409121FDB75D0107411121F55
:101FD000DB75D0187419121FDB801EF879127F345C
:101FE000E6B4121B7456F6B95615E82406F8E6B4A2
:101FF000340D7478F6B478072200759961800675FF
:10200000993F756E0175990D75990AE56E701A758F
:10201000990D75990A7599507599417599537599E6
:102020005375990D75990A801A75990D75990A75E8
:10203000994675994175994975994C75990D759998
:052040000A80000143CD
:10800000021E3F021E4C021E5A021E61E581B4533D
:108010000DE552B42608E553B41E03021E28021EC5
:018020002E31
:00000001FF
