:03000000020030CB
:10003000758920758DFD758840759852756E0075AF
:100040009941759961800675993F756E0175996240
:100050008005759963801875E05AB45AF5B47A062C
:1000600075993F756E01B47AE975993F756E0175A2
:100070006002D5600675993F756E01D5600575996A
:1000800064800675993F756E017560A5E560B4A53D
:1000900005759965800675993F756E0175990D75A1
:1000A000990A7599427881E8B4812F7943E9B4437C
:1000B000297A27EAB427237BC2EBB4C21D7CF1EC7A
:1000C000B4F1177D04EDB404117E92EEB4920B7F6F
:1000D0001FEFB41F05759961800675993F756E0114
:1000E00075D080400675993F756E01500775D00038
:1000F0004002500675993F756E017599627892B805
:10010000910875993F756E017891B891FB79A3B903
:10011000A20875993F756E0179A2B9A2FB7AB4BAAB
:10012000B30875993F756E017AB3BAB3FB7BC5BB53
:10013000C40875993F756E017BC4BBC4FB7CD6BCFB
:10014000D50875993F756E017CD5BCD5FB7DE7BDA3
:10015000E60875993F756E017DE6BDE6FB7EF8BE4B
:10016000F70875993F756E017EF7BEF7FB7F09BFF3
:10017000080875993F756E017F08BF08FB75D000B0
:100180007834B83500500FB83400400AB833004016
:1001900005759963800675993F756E0175D080C3AA
:1001A000400BD35008B34005759964800675993F9C
:1001B000756E017860756012E560B4121D76F5E524
:1001C00060B4F5167960756012E560B4120C77F5CD
:1001D000E560B4F505759965800675993F756E0102
:1001E00078307613B6120875993F756E017612B69F
:1001F00012FB79307735B7340875993F756E017702
:1002000034B734FB7830C37634B63500500FB6348B
:1002100000400AB633004005759966800675993F1F
:10022000756E017560C07531C17532C2C374C1B5D8
:10023000311D401BB5320675993F756E015010B5E2
:100240006006759924756E0140057599678006757D
:10025000993F756E0175990D75990A759943752FBA
:1002600080800E307F1C307E1175993F756E018045
:1002700011207FEF759921756E01207E05759961BA
:10028000800675993F756E0175E079B4790A745AE4
:10029000B45A05759962800675993F756E01748030
:1002A000800E601B7400601075993F756E01800FA1
:1002B00070F0759921756E017005759963800675EA
:1002C000993F756E01752F80207F02800FC27F20BD
:1002D0007F0AB27F307F05759964800675993F75F6
:1002E0006E01752E08C38273401FD38273501AB0FB
:1002F000725016727350127272500EC3727350099C
:10030000A0725005759965800675993F756E0175E7
:100310002E08C3A2735015A2724011C392712071AE
:100320000BD39271307105759966800675993F758A
:100330006E01752E00D273A273500BD272A272504E
:1003400005759967800675993F756E01752E088051
:1003500009A273400F10720C80051073F4800575AC
:100360009968800675993F756E01752F0075F0804C
:10037000800E30F71C30F61175993F756E018011B3
:1003800020F7EF759921756E0120F6057599698042
:100390000675993F756E0175F08020F702800FC2D7
:1003A000F720F70AB2F730F70575996A8006759954
:1003B0003F756E0175F008C382F3401FD382F3507E
:1003C0001AB0F2501672F3501272F2500EC372F35A
:1003D0005009A0F2500575996B800675993F756EAE
:1003E0000175F008C3A2F35015A2F24011C392F1B7
:1003F00020F10BD392F130F10575996C8006759957
:100400003F756E01752E00D2F3A2F3500BD2F2A20B
:10041000F2500575996D800675993F756E0175F0FE
:10042000088009A2F3400F10F20C800510F3F4804D
:100430000575996E800675993F756E0175990D75F4
:10044000990A75994474856444600964C17005759E
:100450009961800675993F756E01748500C333F507
:1004600060640A7016E560336415700F748500C30C
:10047000335008334005759962800675993F756E53
:10048000017485C313F5600064427015E560136460
:10049000A1700E7485C313500813400575996380CD
:1004A0000675993F756E017485C323F560640B7002
:1004B00028E560D323641670207485C303F5606457
:1004C000C27016E560036461700F74FFC3234009B6
:1004D00003034005759964800675993F756E017533
:1004E000990D75990A759945748004B4810E74FF4D
:1004F000C3044008B40005759961800675993F757D
:100500006E017866788008B8817778FFC3084071FB
:10051000B8006E798009B9816879FFC3094062B972
:10052000005F7A800ABA81597AFFC30A4053BA0041
:10053000507B800BBB814A7BFFC30B4044BB004117
:100540007C800CBC813B7CFFC30C4035BC00327D01
:10055000800DBD812C7DFFC30D4026BD00237E8014
:100560000EBE811D7EFFC30E4017BE00147F800F9C
:10057000BF810E7FFFC30F4008BF000575996280E1
:100580000675993F756E0178607931768006B6817F
:100590001D76FFC3064017B60014778007B7810E9B
:1005A00077FFC3074008B700057599638006759902
:1005B0003F756E01756034E560B4340575996480EB
:1005C0000675993F756E017539800539E539B48135
:1005D000127539FFC30539400AE539B4000575992C
:1005E00065800675993F756E01748004B4810E7440
:1005F000FFC3044008B40005759966800675993FED
:10060000756E017866788008B8817778FFC30840F6
:1006100071B8006E798009B9816879FFC3094062B9
:10062000B9005F7A800ABA81597AFFC30A4053BA87
:1006300000507B800BBB814A7BFFC30B4044BB0057
:10064000417C800CBC813B7CFFC30C4035BC00323C
:100650007D800DBD812C7DFFC30D4026BD00237E16
:10066000800EBE811D7EFFC30E4017BE00147F802A
:100670000FBF810E7FFFC30F4008BF00057599674C
:10068000800675993F756E0178607931768006B67F
:10069000811D76FFC3064017B60014778007B78127
:1006A0000E77FFC3074008B7000575996880067587
:1006B000993F756E01756034E560B43405759969CC
:1006C000800675993F756E0175990D75990A759932
:1006D0004678918839E539B4914479928939E53978
:1006E000B4923B7A938A39E539B493327B948B394F
:1006F000E539B494297C958C39E539B495207D96FB
:100700008D39E539B496177E978E39E539B4970E51
:100710007F988F39E539B498057599618006759988
:100720003F756E0176918639E539B4910E779287DF
:1007300039E539B49205759962800675993F756EF1
:1007400001753191853139E539B491057599638029
:100750000675993F756E01753991A839B8913D7547
:100760003992A939B99235753993AA39BA932D7549
:100770003994AB39BB9425753995AC39BC951D7549
:100780003996AD39BD9615753997AE39BE970D7549
:100790003998AF39BF9805759964800675993F758A
:1007A0006E0178607931753991A639B6910D753938
:1007B00092A739B79205759965800675993F756E50
:1007C000017491F8B8912F7492F9B992297493FA3F
:1007D000BA93237494FBBB941D7495FDBD95177457
:1007E00096FDBD96117497FEBE970B7498FFBF9847
:1007F00005759966800675993F756E017860793147
:100800007491F6B6910B7492F7B79205759967805B
:100810000675993F756E0175607978007434F560DE
:10082000A860B83405759968800675993F756E01A2
:10083000740079317531567860756034E6B43409E6
:10084000E7B45605759969800675993F756E01750F
:10085000990D75990A7599477455E470117455F49A
:10086000B4AA0B7497C4B47905759961800675991B
:100870003F756E017583127582FDA3E583B4122066
:10088000E582B4FE1BA3E583B41215E582B4FF1024
:10089000A3E583B4130AE582B40005759962800666
:1008A00075993F756E017434751357C513B4570AA3
:1008B000E513B43405759963800675993F756E012B
:1008C00074917529787929C7B4780AE529B4910516
:1008D000759964800675993F756E0174437EA2CE4A
:1008E000B4A209EEB44305759965800675993F7504
:1008F0006E0175990D75990A75994875603C7499E2
:100900005560B418297860763C749956B4181F79EC
:1009100031773C749957B41815783C749958B418C9
:100920000D793C749959B4180575996180067599CB
:100930003F756E017A3C74995AB4180D7B3C7499DA
:100940005BB41805759962800675993F756E017CD8
:100950003C74995CB4180D7D3C74995DB4180575B0
:100960009963800675993F756E017E3C74995EB4FB
:10097000180D7F3C74995FB41805759964800675ED
:10098000993F756E01743C5499F5E0B41811756087
:100990003C5360998560E0B41805759965800675CB
:1009A000993F756E0175603C74995260E560B418AA
:1009B00005759966800675993F756E0175990D7577
:1009C000990A75994975605174924560B4D3297834
:1009D000607651749246B4D31F793177517492473F
:1009E000B4D3157851749248B4D30D7951749249A7
:1009F000B4D305759961800675993F756E017A517A
:100A000074924AB4D30D7B5174924BB4D30575994B
:100A100062800675993F756E017C5174924CB4D317
:100A20000D7D5174924DB4D3057599638006759907
:100A30003F756E017E5174924EB4D30D7F51749206
:100A40004FB4D305759964800675993F756E01742E
:100A5000514492F5E0B4D3117560514360928560C2
:100A6000E0B4D305759965800675993F756E01757B
:100A7000605174924260E560B4D305759966800652
:100A800075993F756E0175990D75990A75994A7535
:100A9000605174336560B46229786076517433664E
:100AA000B4621F79317751743367B4621578517429
:100AB0003368B4620D7951743369B4620575996114
:100AC000800675993F756E017A5174336AB4620D70
:100AD0007B5174336BB46205759962800675993FDA
:100AE000756E017C5174336CB4620D7D5174336D3D
:100AF000B46205759963800675993F756E017E51E4
:100B000074336EB4620D7F5174336FB4620575999E
:100B100064800675993F756E0174516433F5E0B4D5
:100B200062117560516360338560E0B46205759948
:100B300065800675993F756E01756051743362600A
:100B4000E560B46205759966800675993F756E011A
:100B500075990D75990A75994B7560037404146045
:100B60000BD560FAB40105759961800675993F75DA
:100B70006E017803740414605ED8FBB401597903E4
:100B80007404146052D9FBB4014D7A0374041460E8
:100B900046DAFBB401417B03740414603ADBFBB416
:100BA00001357C03740414602EDCFBB401297D0341
:100BB0007404146022DDFBB4011D7E037404146010
:100BC00016DEFBB401117F03740414600ADFFBB46A
:100BD0000105759962800675993F756E0175990DCD
:100BE00075990A75994C7599307560517433C325A0
:100BF0006085D070B4846BE57054C4640454FE7096
:100C000061786076517433C32685D070B48453E51F
:100C10007054C4640454FE7049793177517433C3FD
:100C20002785D070B4843BE57054C4640454FE70CE
:100C30003178517433C32885D070B48425E570545D
:100C4000C4640454FE701B79517433C32985D07079
:100C5000B4840FE57054C4640454FE700575996142
:100C6000800675993F756E017A517433C32A85D019
:100C700070B48425E57054C4640454FE701B7B5129
:100C80007433C32B85D070B4840FE57054C46404EE
:100C900054FE7005759962800675993F756E017CEA
:100CA000517433C32C85D070B48425E57054C4646A
:100CB0000454FE701B7D517433C32D85D070B484F1
:100CC0000FE57054C4640454FE7005759963800682
:100CD00075993F756E017E517433C32E85D070B403
:100CE0008425E57054C4640454FE701B7F51743332
:100CF000C32F85D070B4840FE57054C4640454FECF
:100D00007005759964800675993F756E0175993106
:100D10007560817493C3256085D070B4146BE570E1
:100D200054C4648454FE7061786076817493C326E1
:100D300085D070B41453E57054C4648454FE704973
:100D4000793177817493C32785D070B4143BE570F3
:100D500054C4648454FE703178817493C32885D060
:100D600070B41425E57054C4648454FE701B7981FA
:100D70007493C32985D070B4140FE57054C464848F
:100D800054FE7005759961800675993F756E017AFC
:100D9000817493C32A85D070B41425E57054C4645B
:100DA0008454FE701B7B817493C32B85D070B41464
:100DB0000FE57054C4648454FE7005759962800612
:100DC00075993F756E017C817493C32C85D070B486
:100DD0001425E57054C4648454FE701B7D817493A3
:100DE000C32D85D070B4140FE57054C4648454FED0
:100DF0007005759963800675993F756E017E8174E3
:100E000093C32E85D070B41425E57054C464845403
:100E1000FE701B7F817493C32F85D070B4140FE5CF
:100E20007054C4648454FE70057599648006759985
:100E30003F756E017599327560887498C325608519
:100E4000D070B4206BE57054C464C454FE706178F3
:100E50006076887498C32685D070B42053E57054AA
:100E6000C464C454FE7049793177887498C3278567
:100E7000D070B4203BE57054C464C454FE70317823
:100E8000887498C32885D070B42025E57054C46454
:100E9000C454FE701B79887498C32985D070B4201F
:100EA0000FE57054C464C454FE70057599618006E2
:100EB00075993F756E017A887498C32A85D070B48D
:100EC0002025E57054C464C454FE701B7B8874985C
:100ED000C32B85D070B4200FE57054C464C454FE95
:100EE0007005759962800675993F756E017C8874EE
:100EF00098C32C85D070B42025E57054C464C454C4
:100F0000FE701B7D887498C32D85D070B4200FE5CA
:100F10007054C464C454FE70057599638006759955
:100F20003F756E017E887498C32E85D070B42025DD
:100F3000E57054C464C454FE701B7F887498C32F3A
:100F400085D070B4200FE57054C464C454FE70059D
:100F5000759964800675993F756E0175990D75993F
:100F60000A75994D7599307560517433C335608534
:100F7000D070B4846BE57054C4640454FE7061781E
:100F80006076517433C33685D070B48453E57054A1
:100F9000C4640454FE7049793177517433C3378582
:100FA000D070B4843BE57054C4640454FE7031784E
:100FB000517433C33885D070B48425E57054C4644B
:100FC0000454FE701B79517433C33985D070B484D6
:100FD0000FE57054C4640454FE7005759961800671
:100FE00075993F756E017A517433C33A85D070B4E8
:100FF0008425E57054C4640454FE701B7B51743323
:10100000C33B85D070B4840FE57054C4640454FEAF
:101010007005759962800675993F756E017C5174F3
:1010200033C33C85D070B48425E57054C464045443
:10103000FE701B7D517433C33D85D070B4840FE5C1
:101040007054C4640454FE700575996380067599E4
:101050003F756E017E517433C33E85D070B48425D4
:10106000E57054C4640454FE701B7F517433C33F55
:1010700085D070B4840FE57054C4640454FE7005C8
:10108000759964800675993F756E01759931756023
:10109000817493C3356085D070B4146BE57054C40B
:1010A000648454FE7061786076817493C33685D011
:1010B00070B41453E57054C4648454FE704979319B
:1010C00077817493C33785D070B4143BE57054C4F2
:1010D000648454FE703178817493C33885D070B4C1
:1010E0001425E57054C4648454FE701B7981749394
:1010F000C33985D070B4140FE57054C4648454FEB1
:101100007005759961800675993F756E017A8174D5
:1011100093C33A85D070B41425E57054C4648454E4
:10112000FE701B7B817493C33B85D070B4140FE5B4
:101130007054C4648454FE70057599628006759974
:101140003F756E017C817493C33C85D070B41425C7
:10115000E57054C4648454FE701B7D817493C33D58
:1011600085D070B4140FE57054C4648454FE7005C7
:10117000759963800675993F756E017E817493C37E
:101180003E85D070B41425E57054C4648454FE7058
:101190001B7F817493C33F85D070B4140FE57054E6
:1011A000C4648454FE7005759964800675993F7512
:1011B0006E017599327560887498C3356085D070FA
:1011C000B4206BE57054C464C454FE7061786076DA
:1011D000887498C33685D070B42053E57054C464C5
:1011E000C454FE7049793177887498C33785D070BC
:1011F000B4203BE57054C464C454FE7031788874E4
:1012000098C33885D070B42025E57054C464C454A4
:10121000FE701B79887498C33985D070B4200FE5AF
:101220007054C464C454FE70057599618006759944
:101230003F756E017A887498C33A85D070B42025C2
:10124000E57054C464C454FE701B7B887498C33B1F
:1012500085D070B4200FE57054C464C454FE70058A
:10126000759962800675993F756E017C887498C384
:101270003C85D070B42025E57054C464C454FE701D
:101280001B7D887498C33D85D070B4200FE57054E1
:10129000C464C454FE7005759963800675993F75E2
:1012A0006E017E887498C33E85D070B42025E570A9
:1012B00054C464C454FE701B7F887498C33F85D0A7
:1012C00070B4200FE57054C464C454FE7005759961
:1012D00064800675993F756E0175993375608874E1
:1012E00098D3356085D070B4216BE57054C464C563
:1012F00054FE7061786076887498D33685D070B467
:101300002153E57054C464C554FE7049793177881F
:101310007498D33785D070B4213BE57054C464C54C
:1013200054FE703178887498D33885D070B42125F4
:10133000E57054C464C554FE701B79887498D33921
:1013400085D070B4210FE57054C464C554FE700597
:10135000759961800675993F756E017A887498D386
:101360003A85D070B42125E57054C464C554FE702C
:101370001B7B887498D33B85D070B4210FE57054E3
:10138000C464C554FE7005759962800675993F75F1
:101390006E017C887498D33C85D070B42125E570AB
:1013A00054C464C554FE701B7D887498D33D85D0A9
:1013B00070B4210FE57054C464C554FE700575996E
:1013C00063800675993F756E017E887498D33E855B
:1013D000D070B42125E57054C464C554FE701B7FE1
:1013E000887498D33F85D070B4210FE57054C464DD
:1013F000C554FE7005759964800675993F756E0138
:1014000075990D75990A75994E7599307560707456
:1014100073C3956085D070B4036BE57054C46400E9
:1014200054FE7061786076707473C39685D070B422
:101430000353E57054C4640054FE704979317770E9
:101440007473C39785D070B4033BE57054C46400D3
:1014500054FE703178707473C39885D070B40325CE
:10146000E57054C4640054FE701B79707473C399A2
:1014700085D070B4030FE57054C4640054FE700549
:10148000759961800675993F756E017A707473C3A2
:101490009A85D070B40325E57054C4640054FE707E
:1014A0001B7B707473C39B85D070B4030FE57054BD
:1014B000C4640054FE7005759962800675993F7585
:1014C0006E017C707473C39C85D070B40325E57085
:1014D00054C4640054FE701B7D707473C39D85D02A
:1014E00070B4030FE57054C4640054FE7005759920
:1014F00063800675993F756E017E707473C39E8517
:10150000D070B40325E57054C4640054FE701B7F92
:10151000707473C39F85D070B4030FE57054C464B6
:101520000054FE7005759964800675993F756E01CB
:101530007599317560707473D3956085D070B402FD
:101540006BE57054C4640154FE7061786076707409
:1015500073D39685D070B40253E57054C4640154BB
:10156000FE7049793177707473D39785D070B40267
:101570003BE57054C4640154FE703178707473D3C9
:101580009885D070B40225E57054C4640154FE708F
:101590001B79707473D39985D070B4020FE57054C1
:1015A000C4640154FE7005759961800675993F7594
:1015B0006E017A707473D39A85D070B40225E57089
:1015C00054C4640154FE701B7B707473D39B85D02C
:1015D00070B4020FE57054C4640154FE700575992F
:1015E00062800675993F756E017C707473D39C851B
:1015F000D070B40225E57054C4640154FE701B7DA4
:10160000707473D39D85D070B4020FE57054C464B8
:101610000154FE7005759963800675993F756E01DA
:101620007E707473D39E85D070B40225E57054C467
:10163000640154FE701B7F707473D39F85D070B4A7
:10164000020FE57054C4640154FE700575996480FE
:101650000675993F756E017599327560C374C5C37F
:10166000956085D070B4026BE57054C4640454FE78
:101670007061786076C374C5C39685D070B4025328
:10168000E57054C4640454FE7049793177C374C55D
:10169000C39785D070B4023BE57054C4640454FE13
:1016A000703178C374C5C39885D070B40225E570D5
:1016B00054C4640454FE701B79C374C5C39985D0A7
:1016C00070B4020FE57054C4640454FE700575993B
:1016D00061800675993F756E017AC374C5C39A859A
:1016E000D070B40225E57054C4640454FE701B7BB2
:1016F000C374C5C39B85D070B4020FE57054C46435
:101700000454FE7005759962800675993F756E01E7
:101710007CC374C5C39C85D070B40225E57054C4E5
:10172000640454FE701B7DC374C5C39D85D070B422
:10173000020FE57054C4640454FE7005759963800B
:101740000675993F756E017EC374C5C39E85D070C2
:10175000B40225E57054C4640454FE701B7FC37446
:10176000C5C39F85D070B4020FE57054C46404549F
:10177000FE7005759964800675993F756E017599BF
:10178000337560C374C5D3956085D070B4016BE5C3
:101790007054C4640554FE7061786076C374C5D318
:1017A0009685D070B40153E57054C4640554FE703E
:1017B00049793177C374C5D39785D070B4013BE5BF
:1017C0007054C4640554FE703178C374C5D39885D1
:1017D000D070B40125E57054C4640554FE701B79C3
:1017E000C374C5D39985D070B4010FE57054C46437
:1017F0000554FE7005759961800675993F756E01F7
:101800007AC374C5D39A85D070B40125E57054C4E9
:10181000640554FE701B7BC374C5D39B85D070B424
:10182000010FE57054C4640554FE7005759962801B
:101830000675993F756E017CC374C5D39C85D070C5
:10184000B40125E57054C4640554FE701B7DC37457
:10185000C5D39D85D070B4010FE57054C4640554A0
:10186000FE7005759963800675993F756E017EC39C
:1018700074C5D39E85D070B40125E57054C4640549
:1018800054FE701B7FC374C5D39F85D070B4010F05
:10189000E57054C4640554FE70057599648006753E
:1018A000993F756E0175990D75990A75994F7581F6
:1018B0009F75601278A07600C060E6B4120AE581D8
:1018C000B4A005759961800675993F756E017561C3
:1018D00000E4D0617961E7B4120AE581B49F05752F
:1018E0009962800675993F756E0175990D75990A13
:1018F000759950758365758243900123E583B40122
:101900000AE582B42305759961800675993F756E65
:10191000019000137455F0A3F4F0900013E0B45557
:101920000AA3E0B4AA05759962800675993F756EA1
:1019300001747990000078137914E2B45509E3B486
:10194000AA05759963800675993F756E0175990DA5
:1019500075990A7599517403240283800407131939
:1019600021B42105759961800675993F756E0190C6
:10197000195D740093B40717740193B413117402C2
:1019800093B4190B740393B421057599628006759D
:10199000993F756E0175990D75990A759952758102
:1019A0004F75500075510075520075530031B1806C
:1019B00014E581B4510FE550B4AF0AE551B41905EF
:1019C000759961800675993F756E011219D0801462
:1019D000E581B4530FE552B4CE0AE553B419057549
:1019E0009962800675993F756E019019C0743373C2
:1019F000021A060219F9021A0674007400740074BF
:101A000000759963800675993F756E0175990D751E
:101A1000990A75995375814F754F1A754E29754DF1
:101A20001A754C332280167400E581B44D0F228064
:101A30000C7400E581B44B05759961800675993F7A
:101A4000756E0175814F754F1A754E57754D1A7524
:101A50004C612280E87400E581B44D0F2280DE7471
:101A600000E581B44B05759962800675993F756EE6
:101A70000175990D75990A75995475F0077413E5F8
:101A8000F0B40737901AC378007909E80893F5F0A5
:101A9000E8089384F560E808937015E5D054047065
:101AA0001AE80893B56014E80893B5F00E021AB26C
:101AB000080819E970D5759961800675993F756EAA
:101AC00001802D07130002050711000203070D0016
:101AD00001060D11000104110D00000D000D0400A0
:101AE0000D808700010701FF00FF0002FF007F015A
:101AF000901B3178007909E80893F5F0E80893A481
:101B0000F560E8936008E5D05404601D8006E5D0D8
:101B100054047015E80893B5F00FE80893B5600910
:101B200019E970D3759962800675993F756E0180C9
:101B3000240713008507110077070D005B0D1100C6
:101B4000DD110D00DD000D00008087438001FF00E6
:101B5000FF02FF01FE75990D75990A75995575D0AB
:101B6000007401121B8075D0087409121B8075D097
:101B7000107411121B8075D0187419121B80801EEE
:101B8000F879127F34E6B4121B7456F6B95615E88C
:101B90002406F8E6B4340D7478F6B478072200759C
:101BA0009961800675993F756E0175990D75990A51
:101BB000E56E701A75990D75990A75995075994168
:101BC00075995375995375990D75990A801A759978
:101BD0000D75990A75994675994175994975994C8C
:0A1BE00075990D75990A800061E8FF
:00000001FF
